:1000000000200010430000004100000041000000FB
:1000100041000000410000004100000041000000DC
:1000200041000000410000004100000041000000CC
:1000300041000000410000004100000041000000BC
:10004000FEE70B480B490C4A091A05D013780370D8
:10005000013201300139F9DC08480949091A04D094
:100060005B40037001300139FBDC00F0D7FAFEE79A
:1000700000000010C809001020160000D009001070
:10008000D4090010F01F0000704700F0C3BF00004B
:100090002DE9F0412D4C90B02068039003A800F0AA
:1000A00057F800284AD00CAA1746231D14341546C9
:1000B00018685968083303C5A3422A46F7D14FF0A0
:1000C0001008012101A800F0B2FA012806463AD131
:1000D0009DF80450F5B1012DF3D1102108A800F0CE
:1000E000A6FA10280446ECD1002102A800F09FFADD
:1000F00006460028E5D1294600F0BCF93A4608A991
:1001000004A800F087FF3146304600F0B3F92146DD
:1001100004A810E010AC04F8358D0146204600F02C
:10012000DDFA314620468DF80B8000F0D7FA3146D3
:1001300020468DF80B5000F0D1FAC2E74FF0FF30A7
:1001400010B0BDE8F0810020FAE700BFE81400001D
:100150002DE9F74F012110279D4C066823689D4D1E
:10016000D3F880205FFA86F842F48032C3F880200A
:10017000994A884512682E609167D167176140F2ED
:100180000127C2F8A410C2F8A81017635763D3F868
:100190008020AC4642F02002C3F88020D3F88020B3
:1001A000009442F04002C3F88020D3F8802042F44B
:1001B0008052C3F880205A6822F002025A605A68BE
:1001C00042F002025A6005D026D3B8F1020F05D0E2
:1001D0000020DBE041464FF0030A00E08A464FF082
:1001E0000009C6F307220192C6F307460125DDF890
:1001F00004E009F1010707FB0EF4B4FBF5FB05FB76
:100200001B420AB95E4509D00135B5F5807FF4D1AE
:10021000202FB946EAD1DBE70021DCE766009C3EEF
:10022000A42E0FD9A6009C3EA42E40F2B280E60078
:100230009C3EA42E40F2AF8024019C3CA42C00F2F2
:10024000C58003220EF1FF34132C49EA421200F25A
:10025000A48000241C62D3F83842B8F1000F40F0AB
:10026000A48044F02004C3F83842C82300BF013BF7
:10027000FCD1009B1B681964596C41F00101596461
:10028000596C21F001015964596C41F00101596424
:10029000596CCC07FCD59A60D3F8382222F0800242
:1002A000C3F83822DA68D107FCD5C3F870A05A6FBA
:1002B00042F001025A675A6F22F001025A675A6FE0
:1002C00042F001025A675A6FD207FCD59CF802200F
:1002D0009D67142A6CD80024404909680C61404984
:1002E00002EB8202096801F50044256845F001052A
:1002F0002560256845F0020525603A4C246804F520
:100300000044256825F00205256043F6FC740D596C
:1003100025F001050D510D5925F002050D5105255A
:100320009CF8011004244F43C3F898702E4B1B68AF
:10033000D96841F08001D9609D62996A41F08001DD
:100340009962002159601C60D96821F08001D96050
:10035000D96841F00301D960D96821F00801D9605A
:10036000D96821F00401D960204B1B685A611A61D9
:1003700040221A606FF07F421D4B1B685A619A61E0
:10038000C2780AB31D6100F04EF9012003B0BDE848
:10039000F08F012256E7022254E7AEF10F0EBEF1B4
:1003A0000A0F3FF658AF022454E724F020045AE71E
:1003B000282A03D80949012409688FE7322A8ED8F0
:1003C00006490224096889E71C61DCE71046DDE77D
:1003D00004040010D40900100804001024040010C4
:1003E000100400100C0400101C0400102004001065
:1003F00028040010054B9B785843032390FBF3F02F
:10040000002801DD0138FDD1704700BFD40900107C
:100410000146002208B58A4200DB08BD4FF47A701D
:10042000FFF7E8FF0132F6E7024B00211B689869ED
:10043000704700BF2804001001280CD003D3022805
:1004400011D000207047094B1A6843F6FC73D0584E
:1004500000F001007047054B1A6843F6FC73D05852
:10046000C0F340007047024BF6E700BF10040010D5
:100470000C040010012811D002D3022817D07047B5
:100480000E4B1A6843F6FC7321B1D15841F00101BB
:10049000D1507047D15821F00101F9E7074B1A6894
:1004A00043F6FC7329B1D15841F00201F0E7044B47
:1004B000F5E7D15821F00201EAE700BF100400106F
:1004C0000C040010024B1B68586900F001007047D3
:1004D0001C040010024B1B685869C0F340107047A1
:1004E0001C04001008B510B9FFF7ECFFFBE7024B46
:1004F0001B681868C0B208BD1C04001008B510B90C
:10050000FFF7E8FFFBE7024B1B68196008BD00BF5F
:100510001C0400102DE9F041202541EA400C4FF069
:100520003C0E042738214FF024081820354E34683B
:1005300025603468656805F0F805282D39D014D891
:10054000102D03D007D805B3082DF3D1C4F808C087
:100550002760A061EDE7182D1ED0202DEAD11423CD
:10056000236028230220A36114E0402D2DD006D85B
:10057000302D24D0382DDDD1C4F80080E9E7502D8E
:100580002AD0582D35D0482DE8E71423236028239E
:100590000120A361BDE8F0812BB115780132A5607F
:1005A0002760A161C5E7142222602822A2610020F1
:1005B000F0E7013BF1D114222260A561F7E7142393
:1005C000236028230320A361E4E7012B8ABF27606F
:1005D000C4F818E0A161ACE7A468551C1470326837
:1005E000013B012B8ABF1760C2F818E091612A46CF
:1005F0009FE70BB1A3681370142233681A60282296
:100600009A61D4E72004001013460A460121FFF73F
:1006100081BF13460A460021FFF77CBF4040494096
:10062000FFF736FDFEE762B6704772B670472DE9F8
:10063000F041044600200E46FFF754FF00F08EFD07
:1006400005010020FFF74EFF00F088FDEDB200F03D
:100650000F000543B54204DD4FF0FF352846BDE8E5
:10066000F0810020FFF73EFF3A28F5D14FF0000857
:100670006719BC4205D10020FFF734FF0D28FAD1DD
:10068000ECE784F800800020FFF72CFF0D280646D9
:100690000DD000F0EFFD3044437813F0440FEAD062
:1006A000304600F05BFD237843EA00102070002004
:1006B000FFF718FF0D2806460ED000F0DBFD304492
:1006C000437813F0440FD6D0304600F047FD23782E
:1006D00000F00F00184320700134CAE770B50646D9
:1006E000C1F303100D4600F04EFD01460020FFF758
:1006F00005FF05F00F0000F046FD01460020FFF762
:10070000FDFE3A210020FFF7F9FE3446A31B9D426F
:1007100005DCBDE870400D210020FFF7EFBE20781A
:10072000000900F030FD01460020FFF7E7FE14F855
:10073000010B00F00F0000F026FD01460020FFF73E
:10074000DDFEE3E70A780378534003704A78437884
:10075000534043708A78837853408370CA78C37853
:100760005340C3700A790379534003714A7943793E
:10077000534043718A79837953408371CA79C3792D
:100780005340C3710A7A037A534003724A7A437A18
:10079000534043728A7A837A53408372CA7AC37A07
:1007A0005340C3720A7B037B534003734A7B437BF2
:1007B000534043738A7B837B53408373CA7BC37BE1
:1007C0005340C3737047194B02789A5C02704278A9
:1007D0009A5C427082789A5C8270C2789A5CC2702D
:1007E00002799A5C027142799A5C427182799A5CD0
:1007F0008271C2799A5CC271027A9A5C0272427A00
:100800009A5C4272827A9A5C8272C27A9A5CC272F2
:10081000027B9A5C0273427B9A5C4273827B9A5C95
:100820008273C27B9B5CC373704700BF04000010DF
:100830004179427A437B10B5447842714473827A9D
:100840008478417043728179837B84728173C47828
:10085000C17982708371C27AC37BC471C172C27361
:10086000C37010BD2DE9F041574B0178C6785A1876
:1008700092F800E1427803EB060C9C1894F80071A2
:10088000847881EA020862401D197240614095F83F
:10089000005171408EEA02029CF800C17A4086EA5B
:1008A00008064F4084EA080401796F408EEA040488
:1008B00075408CEA05058CEA040C0270857080F89E
:1008C00003C047705A1892F800E14279C6799C1823
:1008D00094F80071847981EA020862401D1972401F
:1008E000614095F8005103EB060C71408EEA02025C
:1008F0009CF800C17A4086EA08064F4084EA080462
:10090000017A6F408EEA040475408CEA05058CEA92
:10091000040C0271857180F807C047715A1892F86B
:1009200000E1427AC67A9C1894F80071847A81EAD0
:10093000020862401D197240614095F8005103EBB6
:10094000060C71408EEA02029CF800C17A4086EAE9
:1009500008064F4084EA0804017B6F408EEA0404D5
:1009600075408CEA05058CEA040C027285724772A8
:1009700080F80BC05A1892F800C1427BC67B9C18C5
:1009800094F80071847B81EA020E62401D19724066
:10099000614095F80051334471408CEA020293F8AB
:1009A00000317A4086EA0E064F4084EA0E046F401A
:1009B0008CEA040475405D4063400273477385739D
:1009C000C373BDE8F08100BF04000010FFF7BABE9A
:1009D000284B02781A4492F80022027042781A4496
:1009E00092F80022427082781A4492F800228270B3
:1009F000C2781A4492F80022C27002791A4492F81E
:100A00000022027142791A4492F8002242718279DE
:100A10001A4492F800228271C2791A4492F8002294
:100A2000C271027A1A4492F800220272427A1A447F
:100A300092F800224272827A1A4492F8002282725C
:100A4000C27A1A4492F80022C272027B1A4492F8C7
:100A500000220273427B1A4492F800224273827B86
:100A60001A4492F800228273C27B134493F8003236
:100A7000C3737047040000104179427A437B10B57C
:100A80004478417244718179847842734370827AE8
:100A9000837B84728173C478C17982708371C27AD6
:100AA000C37BC170C473C271C37210BD2DE9F04F16
:100AB000D84B90F802C0077803EB0C0490F803E0E1
:100AC00094F8004187B0DA19029492F8002103EB00
:100AD0000E0494F80041019242780394019C991805
:100AE00091F800111C1994F800B15C1894F80051A9
:100AF00003EB0B08029C009098F800011C1994F875
:100B000000610490039C87EA0200059004981C1978
:100B100094F800418BEA000B82EA0C02019803EB87
:100B200005088EEA020298F800A103EB040942408E
:100B300099F8009103EB06084A4098F800818AEA88
:100B4000020289EA0202009886EA08068BEA02029B
:100B500087EA0C0772408EEA0707027081EA0702F3
:100B6000029985EA0A054A40049984EA09044A4040
:100B700088EA02026A4062404270059A07798EEA6A
:100B8000020E029A82EA0E0E039A82EA0E0E059A6D
:100B90008AEA0E0E8CEA020C019A89EA0E0982EAB0
:100BA0000C0C039A8BEA090B82EA0C0C049A86EA75
:100BB0000B0682EA0C0C88EA0C0885EA08056C40F2
:100BC000C470867090F806C0DA1992F8002103EB21
:100BD0000C040192427994F800019918029000984F
:100BE00091F8001190F807E003EB0E0494F800016F
:100BF000039001981C18029894F800B15C1894F8BE
:100C000000511C18039894F8006103EB0B081C18A2
:100C100094F8004198F8000103EB050898F800A14A
:100C2000049003EB060887EA020003EB040998F836
:100C3000008199F800910590049882EA0C028BEAF1
:100C4000000B01988EEA020242404A408AEA020200
:100C500089EA0202009886EA08068BEA020287EA1D
:100C60000C0772408EEA0707027181EA07020299B7
:100C700085EA0A054A40049984EA09044A4088EA58
:100C800002026A4062404271059A077A8EEA020EB9
:100C9000029A82EA0E0E039A82EA0E0E059A8AEAF8
:100CA0000E0E8CEA020C019A89EA0E0982EA0C0CFB
:100CB000039A8BEA090B82EA0C0C049A86EA0B066B
:100CC00082EA0C0C88EA0C0885EA08056C408671FB
:100CD000C47190F80AC0DA1992F8002103EB0C04F1
:100CE0000192427A94F8000199180290009891F8C4
:100CF000001190F80BE003EB0E0494F80001039050
:100D000001981C1894F800B15C1894F800510298EE
:100D100003EB0B081C18039894F800611C1898F852
:100D2000000194F80041049087EA020005900498BD
:100D300082EA0C028BEA000B019803EB05088EEAAD
:100D4000020298F800A103EB0409424099F80091CF
:100D500003EB06084A4098F800818AEA020289EA11
:100D60000202009886EA08068BEA020287EA0C076C
:100D700072408EEA0707027281EA0702029985EA49
:100D80000A054A40049984EA09044A4088EA0202B2
:100D90006A4062404272059A8EEA020E029A82EA24
:100DA0000E0E039A82EA0E0E059A8AEA0E0E8CEA5D
:100DB000020C019A89EA0E0982EA0C0C039A8BEA6A
:100DC000090B82EA0C0C049A86EA0B0682EA0C0CE8
:100DD00088EA0C0885EA080590F80CC06C40867219
:100DE000C47203EB0C0292F800210192427B991825
:100DF00091F8001190F80EE003EB0E0494F8000156
:100E00000290009890F80F8003EB080494F800011A
:100E100002E000BF04000010039001981C18029823
:100E200094F800715C1894F800511C18039894F819
:100E300000611C188CEA020094F8004103EB0709DA
:100E4000049082EA0E02019899F800A188EA020251
:100E500003EB050999F800B1424003EB060923446E
:100E600093F800314A4099F800918BEA020287EA30
:100E70000A075A40009886EA09067A408CEA0E0C66
:100E8000724088EA0C0C027381EA0C02029985EA2E
:100E90000B054A408AEA020289EA02025C406A4083
:100EA00062404273049A88EA0208029A82EA0808B9
:100EB000039A82EA08088BEA080883EA08035F407D
:100EC000049B7E408EEA030E019B867383EA0E0E1E
:100ED00082EA0E0E8AEA0E0A89EA0A0985EA0905FB
:100EE0006C40C47307B0BDE8F08F0346F0B52048EE
:100EF0004C7B0F78045D574067401F708C7B065D0C
:100F00004C7866405E70CC7B055D8C7865409D704A
:100F10000C7B10F804C0CC7810448CEA0404DC701C
:100F20000A7990F8000157401F714A7956405E7166
:100F30008A7955409D71CA796240DA710C7A6740AE
:100F40001F724C7A66405E728C7A6C409C72CD7ACD
:100F50006A40DA720D7B6F401F734D7B6E405E738B
:100F60008D7B6C409C73C97B4A40DA73F0BD00BF37
:100F7000040000100346F0B5C87BCF7A4740DF730A
:100F8000887B8E7A46409E73487B4D7A45405D73E0
:100F9000087B91F808C08CEA000C83F80CC0CC7A6E
:100FA000C8796040D8728C7A8879604098724C7A9F
:100FB0004879604058720C7A087960401872CC7990
:100FC000C8786040D87188788C796040987148788A
:100FD0004C79604058710C79087860400C4C18715D
:100FE000224492F8000314F80C2091F803C082EA1E
:100FF0000C02DA70E25D8F787A409A70A25D4E78CA
:1010000072405A700A78615D42404A401A70F0BDE1
:10101000040000102DE9F04188B004AC06460B46F0
:10102000254602F1100C274610685168083203C7A4
:1010300062453C46F7D16A46144603F1100C174648
:1010400018685968083303C763453A46F7D12946FB
:101050002046FFF777FB4FF0090801272046FFF7EE
:10106000B2FBFFF7E5FBFFF7FDFB3A4629462846B2
:10107000FFF73BFF294607462046FFF763FBB8F121
:101080000108EBD1FFF79FFBFFF7D2FB3A46294659
:101090002846FFF72AFF29462046FFF753FB334631
:1010A000224603CAAA4218605960144603F1080395
:1010B000F6D108B0BDE8F0812DE9F04188B004AC6C
:1010C00006460B46254602F1100C2746106851686B
:1010D000083203C762453C46F7D16A46144603F11D
:1010E000100C174618685968083303C763453A4619
:1010F000F7D129462046FFF725FBFFF7BDFCFFF798
:1011000067FC4FF009086C273A4629462846FFF746
:1011100031FF294607462046FFF714FBFFF7C6FCC0
:101120002046FFF7A9FCFFF753FCB8F10108EBD10B
:101130003A4629462846FFF71DFF29462046FFF775
:1011400001FB3346224603CAAA421860596014467E
:1011500003F10803F6D108B0BDE8F081A0F1300337
:10116000DAB2092A01D818467047A0F16103052BAD
:1011700001D857387047A0F14103052B94BF373889
:101180004FF0FF307047092802D83030C0B27047A6
:10119000A0F10A03052B01D83730F7E73F2070474D
:1011A000F8B517460025461EBD4200DBF8BD11F814
:1011B0001500FFF7D3FF0001C4B206F8014F01EBA1
:1011C00045035878FFF7CAFF00F00F00044334705E
:1011D0000135E9E738B5054600240139944205DBBD
:1011E000002322EAE27205F8123038BD11F8010F2F
:1011F0000009FFF7C8FF05F81400087800F00F0099
:10120000FFF7C1FF05EB440358700134E6E7000027
:10121000B2B110B50B491046144600F069F808B990
:10122000094810BD0849204600F062F80028F7D0B0
:101230002046064900F05CF80028F1D0002010BDDF
:101240000148704700150000FC140000081500005C
:10125000044B054A1B685B6B002B08BF134693F8D1
:1012600028017047980500102C040010D0F8EC00FD
:10127000704700BF044B054A1B685B6B002B08BF1F
:101280001346D3F8EC007047980500102C040010AA
:10129000024B0A4601461868FFF7BABF98050010CE
:1012A00030B4064C064D2468646B002C08BF2C46F5
:1012B000D4F8E440A44630BC604700BF9805001055
:1012C0002C04001082B049B15AB16BB113780B6095
:1012D0001278101C18BF012002B0704701A9002A23
:1012E000F3D1104602B070476FF00100F4E700BF81
:1012F00080EA010C1CF0030F37D110F0030C20F032
:10130000030021F0030150F8042B08BF51F8043BFF
:101310000ED08CF0030C6FF07F434FEACC0C23FA15
:101320000CFC51F8043B42EA0C0243EA0C0300BFF8
:10133000A2F1013C9A4201BF2CEA020C1CF0803F52
:1013400050F8042B51F8043BF2D04FEA02604FEA08
:101350001222012828BFB0EB036F08BF1B0AF4D08C
:1013600003F0FF03000EC01A704710F0030F0AD0FD
:1013700010F8012B11F8013B012A28BF9A42F4D042
:10138000A2EB030070474DF8045D50F8042B01F008
:10139000030521F0030151F8043B022D26D04DD85E
:1013A00022F07F45B5EB132FA2F1013C2CEA020C91
:1013B0000DD11CF0803C08BF51F8043B0AD185EAEE
:1013C0000205B5EB036F0CD150F8042BE8E74FEAA8
:1013D00013235BE03CF07F4C54D10B784FEA12654D
:1013E00054E04FEA126503F0FF034FE04FEA024575
:1013F000A2F1013C4FEA15452CEA020CB5EB134F64
:1014000018D11CF0803C08BF51F8043B07D185EA95
:101410000205B5EB034F09D150F8042BE6E75FEA6C
:101420000C4C2FD10B884FEA12452FE04FEA0343B3
:101430004FEA12454FEA134328E000BF02F0FF05D0
:10144000B5EB136FA2F1013C2CEA020C0DD11CF09C
:10145000803C08BF51F8043B0AD185EA0205B5EB90
:10146000032F0AD150F8042BE8E74FEA13630DE08D
:1014700012F0FF0F06D051F8043B4FEA122523F07B
:101480007F4303E04FF0000020BC704705F0FF02EF
:1014900003F0FF00012828BF904204BF2D0A1B0A59
:1014A000F4D0A2EB000020BC704700BF30B4064C63
:1014B000064D2468646B002C08BF2C46D4F8E0402D
:1014C000A44630BC604700BF980500102C040010F3
:1014D00019B1FF2A03D80A700121084670478A23F0
:1014E0004FF0FF310360F8E701101000130DDCD05E
:1014F0007A3C82762E529D03C1B6AED643000000E0
:10150000504F534958000000000000002E0000001A
:1015100000202020202020202020282828282820C3
:1015200020202020202020202020202020202020BB
:101530002088101010101010101010101010101023
:101540001004040404040404040404101010101013
:1015500010104141414141410101010101010101DD
:10156000010101010101010101010101101010102F
:1015700010104242424242420202020202020202AF
:101580000202020202020202020202021010101003
:10159000200000000000000000000000000000002B
:1015A000000000000000000000000000000000003B
:1015B000000000000000000000000000000000002B
:1015C000000000000000000000000000000000001B
:1015D000000000000000000000000000000000000B
:1015E00000000000000000000000000000000000FB
:1015F00000000000000000000000000000000000EB
:1016000000000000000000000000000000000000DA
:0816100000000000A00500101D
:081618000000000000000000CA
:10162000000C0C01637C777BF26B6FC53001672B7C
:10163000FED7AB76CA82C97DFA5947F0ADD4A2AFC6
:101640009CA472C0B7FD9326363FF7CC34A5E5F1D4
:1016500071D8311504C723C31896059A071280E282
:10166000EB27B27509832C1A1B6E5AA0523BD6B3D6
:1016700029E32F8453D100ED20FCB15B6ACBBE3946
:101680004A4C58CFD0EFAAFB434D338545F9027F32
:10169000503C9FA851A3408F929D38F5BCB6DA21EB
:1016A00010FFF3D2CD0C13EC5F974417C4A77E3D17
:1016B000645D197360814FDC222A908846EEB8146D
:1016C000DE5E0BDBE0323A0A4906245CC2D3AC6230
:1016D0009195E479E7C8376D8DD54EA96C56F4EA3B
:1016E000657AAE08BA78252E1CA6B4C6E8DD741F4C
:1016F0004BBD8B8A703EB5664803F60E613557B90F
:1017000086C11D9EE1F8981169D98E949B1E87E9C8
:10171000CE5528DF8CA1890DBFE6426841992D0F77
:10172000B054BB1600020406080A0C0E1012141660
:10173000181A1C1E20222426282A2C2E3032343639
:10174000383A3C3E40424446484A4C4E5052545629
:10175000585A5C5E60626466686A6C6E7072747619
:10176000787A7C7E80828486888A8C8E9092949609
:10177000989A9C9EA0A2A4A6A8AAACAEB0B2B4B6F9
:10178000B8BABCBEC0C2C4C6C8CACCCED0D2D4D6E9
:10179000D8DADCDEE0E2E4E6E8EAECEEF0F2F4F6D9
:1017A000F8FAFCFE1B191F1D131117150B090F0D5D
:1017B000030107053B393F3D333137352B292F2DA9
:1017C000232127255B595F5D535157554B494F4D99
:1017D000434147457B797F7D737177756B696F6D89
:1017E000636167659B999F9D939197958B898F8D79
:1017F00083818785BBB9BFBDB3B1B7B5ABA9AFAD69
:10180000A3A1A7A5DBD9DFDDD3D1D7D5CBC9CFCD58
:10181000C3C1C7C5FBF9FFFDF3F1F7F5EBE9EFED48
:10182000E3E1E7E552096AD53036A538BF40A39E0B
:1018300081F3D7FB7CE339829B2FFF87348E4344AF
:10184000C4DEE9CB547B9432A6C2233DEE4C950B0B
:1018500042FAC34E082EA16628D924B2765BA2496B
:101860006D8BD12572F8F66486689816D4A45CCC8A
:101870005D65B6926C704850FDEDB9DA5E1546575D
:10188000A78D9D8490D8AB008CBCD30AF7E4580593
:10189000B8B34506D02C1E8FCA3F0F02C1AFBD039F
:1018A00001138A6B3A9111414F67DCEA97F2CFCE70
:1018B000F0B4E67396AC7422E7AD3585E2F937E80B
:1018C0001C75DF6E47F11A711D29C5896FB7620E4D
:1018D000AA18BE1BFC563E4BC6D279209ADBC0FE2E
:1018E00078CD5AF41FDDA8338807C731B1121059DB
:1018F0002780EC5F60517FA919B54A0D2DE57A9FCD
:1019000093C99CEFA0E03B4DAE2AF5B0C8EBBB3CC1
:1019100083539961172B047EBA77D626E169146345
:1019200055210C7D0000010102020303040405059A
:1019300006060707080809090A0A0B0B0C0C0D809C
:101940000E0E0F821010111112121313141415150C
:1019500016161717181819191A1A1B1B1C1C1D907C
:101960001E1E1F92202021212222232324242525EC
:1019700026262727282829292A2A2B2B2C2C2DA05C
:101980002E2E2FA2303031313232333334343535CC
:1019900036363737383839393A3A3B3B3C3C3DB03C
:1019A0003E3E3FB2404041414242434344444545AC
:1019B00046464747484849494A4A4B4B4C4C4DC01C
:1019C0004E4E4FC25050515152525353545455558C
:1019D00056565757585859595A5A5B5B5C5C5DD0FC
:1019E0005E5E5FD26060616162626363646465656C
:1019F00066666767686869696A6A6B6B6C6C6DE0DC
:101A00006E6E6FE27070717172727373747475754B
:101A100076767777787879797A7A7B7B7C7C7DF0BB
:101A20007E7E7FF2008004400040044000000050B1
:101A300000000150000002500000035000800040F0
:101A40000000004000C0034000E000E04300000050
:101A50000000000000000000000000000000000086
:101A60000000000000000000000000004300000033
:101A70000000000000000000000000000000000066
:101A80000000000000000000000000004300000013
:101A90000000000000000000000000000000000046
:101AA00000000000000000000000000043000000F3
:101AB0000000000000000000000000000000000026
:101AC00000000000000000000000000043000000D3
:101AD0000000000000000000000000000000000006
:101AE00000000000000000000000000043000000B3
:101AF00000000000000000000000000000000000E6
:101B00000000000000000000000000004300000092
:101B100000000000000000000000000000000000C5
:101B2000000000000000000000000000D1140000D0
:101B3000C512000000000000101500000C15000088
:101B40000815000008150000081500000815000021
:101B50000815000008150000081500000815000011
:101B600008150000FFFFFFFFFFFFFFFFFFFFFFFF64
:101B7000FFFF0000010041534349490000000000FD
:101B80000000000000000000000000000000000055
:101B900000000000000041534349490000000000DC
:101BA0000000000000000000000000000000000035
:101BB0000000000000000000A00500100000000070
:101BC000000000008C080010F40800105C090010F0
:101BD0000000000000000000000000000000000005
:101BE00000000000000000000000000000000000F5
:101BF00000000000000000000000000000000000E5
:101C000000000000000000000000000000000000D4
:101C100000000000000000000000000000000000C4
:101C200000000000000000000000000000000000B4
:101C300000000000000000000000000000000000A4
:101C40000000000000000000000000000000000094
:101C50000000000000000000000000000000000084
:101C60000000000000000000010000000000000073
:101C70000E33CDAB34126DE6ECDE05000B00000038
:101C80000000000000000000000000000000000054
:101C90000000000000000000000000000000000044
:101CA0000000000000000000000000000000000034
:101CB0000000000000000000000000000000000024
:00000001FF
