:1000000000200010430000004100000041000000FB
:1000100041000000410000004100000041000000DC
:1000200041000000410000004100000041000000CC
:1000300041000000410000004100000041000000BC
:10004000FEE70B480B490C4A091A05D013780370D8
:10005000013201300139F9DC08480949091A04D094
:100060005B40037001300139FBDC00F0EFFCFEE780
:10007000000000102C0000103020000030000010A4
:10008000300000106020000030B58C18A37865782F
:100090008A5C1B0443EA05235340E27843EA026387
:1000A000036030BD70B505460E460024224628196F
:1000B00031460434FFF7E8FF102CF7D1042214492D
:1000C000281F9407036950F8046F1BD11C0E51F8C8
:1000D0002450DCB251F8244005F47F0504F07F443D
:1000E0002C43C3F30725C3F3074351F8233011F81A
:1000F000255003F47F432B4301EBA20595F8FF53F2
:100100006B406340013273402C2A0361D9D170BD2A
:10011000BC0A000081540B0A024453700B0C090EF8
:100120009370D170704770B506460D460024AC42FE
:1001300005DB0A21002000F0F5FB204670BD002001
:1001400000F0E4FB0D28F4D00A28F2D03055013439
:10015000EDE770B505460E460446631B9E4205DC7E
:10016000BDE870400A21002000F0DCBB14F8011B40
:10017000002000F0D7FBF0E770472DE9F04F15465F
:10018000B3B00090002202A8FFF77EFF042203A86C
:10019000FFF77AFF082204A8FFF776FF0C2205A8D4
:1001A000FFF772FF294606A8FFF77CFF029B069C1B
:1001B00007985C40039B089D5840049B099A5D404A
:1001C000059BDFF820E25A40854B0EA90DF1C808C7
:1001D000E6B203EB860651F8107CD6F800654FEACC
:1001E000106A86EA070C160E03EB8606D6F800693D
:1001F00051F80C7C8CEA060CC0F3072603EB86064C
:10020000D6F8006D03EB8A0A8CEA060CC5F30746A4
:100210000EEB8606D6F808B0C6B203EB8606D6F813
:100220000065DAF800A986EA0709260E03EB8606C0
:10023000D6F8006951F8087C89EA0609C5F3072653
:1002400003EB8606D6F8006DC0F3074089EA06097D
:10025000C2F307460EEB8606B6680EEB80000196E9
:10026000EEB203EB8606D6F800652D0E7E4086EAD8
:100270000A06C2F3072A03EB8A0AD2B2DAF800AD03
:1002800003EB820251F8047CD2F8002503EB8505CC
:1002900086EA0A06D5F80059C4F3074AC4F30724CE
:1002A00003EB84047A406A40D4F8005D80686A40B9
:1002B0000EEB8A0ADAF808A042401031019888450E
:1002C0008CEA0B0489EA000086EA0A0580D1E1B2D3
:1002D00013F821C0110E53F82110C5F3074601F0A1
:1002E0007F414CEA010CC0F3072153F8211053F869
:1002F000266001F47F4106F47F0631432E9E714053
:10030000C6B213F826E0260E53F8266081EA0C01E7
:1003100006F07F4CC5F3072653F826604EEA0C0E14
:1003200006F47F4CC2F3074653F8266006F47F06B6
:100330004CEA060C2F9E8CEA060CEEB213F82680CF
:10034000060E53F826608CEA0E0C06F07F4648EA4B
:100350000608C4F3074EC2F3072653F8266053F885
:100360002EE006F47F460EF47F0E46EA0E0E309E17
:10037000D2B22D0E8EEA060613F822E053F825209D
:10038000C4F3072402F07F42C0F307404EEA02059F
:1003900053F8242053F8203002F47F4203F47F0303
:1003A0001343319A009853406B4086EA08060022B6
:1003B000CDE9021CCDE90463FFF7ACFE0399009878
:1003C0000422FFF7A7FE049900980822FFF7A2FE77
:1003D0000C2205990098FFF79DFE33B0BDE8F08F21
:1003E000BC0A0000B41B00002DE9F0435C4CA5B032
:1003F0002068029002A800F0BFF8002800F0A98051
:100400000BAA1646231D143415461868596808337C
:1004100003C5A3422A46F7D101216846FFF783FEB0
:100420000128044640F09A809DF80030312B19D005
:10043000322B35D0302BEFD1102724AD05F8147DA9
:1004400001462846FFF785FE214628468DF87C7038
:10045000FFF77FFE0023214628468DF87C30FFF70A
:1004600078FED9E7102107A8FFF75DFE10280546A2
:10047000D2D1002101A8FFF756FE07460028CBD1B4
:10048000214600F00BFA01AB324607A903A8FFF79B
:1004900074FE3946384600F001FA294603A8DEE723
:1004A0000FAA90462F4B03F110051446186859689F
:1004B000083303C4AB422246F7D113AC27462A4B7C
:1004C00003F11005224618685968083303C2AB428D
:1004D0001446F7D117ACA146244B03F11002254670
:1004E00018685968083303C593422C46F7D1012197
:1004F000002000F0D3F9424601AB39461BA8FFF7B4
:100500003CFE0021084600F0C9F9102249461BA80C
:1005100000F0A2FA80B9164B1FAA03F11005144689
:1005200018685968083303C4AB422246F7D11868EB
:10053000142110601FA892E70E4B1FAA03F11005AB
:10054000144618685968083303C4AB422246F7D1F1
:10055000EDE74FF0FF3025B0BDE8F0830020FAE76B
:10056000BC1F0000D01F0000E01F0000F01F0000B3
:1005700000200000152000002DE9F74F0121102771
:100580009D4C066823689D4DD3F880205FFA86F85D
:1005900042F48032C3F88020994A884512682E6060
:1005A0009167D167176140F20127C2F8A410C2F821
:1005B000A81017635763D3F88020AC4642F020029E
:1005C000C3F88020D3F88020009442F04002C3F8A2
:1005D0008020D3F8802042F48052C3F880205A68EB
:1005E00022F002025A605A6842F002025A6005D0B4
:1005F00026D3B8F1020F05D00020DBE041464FF0D2
:10060000030A00E08A464FF00009C6F30722019270
:10061000C6F307460125DDF804E009F1010707FBF1
:100620000EF4B4FBF5FB05FB1B420AB95E4509D08D
:100630000135B5F5807FF4D1202FB946EAD1DBE74B
:100640000021DCE766009C3EA42E0FD9A6009C3E4C
:10065000A42E40F2B280E6009C3EA42E40F2AF8071
:1006600024019C3CA42C00F2C58003220EF1FF342F
:10067000132C49EA421200F2A48000241C62D3F831
:100680003842B8F1000F40F0A48044F02004C3F8D1
:100690003842C82300BF013BFCD1009B1B68196492
:1006A000596C41F001015964596C21F00101596400
:1006B000596C41F001015964596CCC07FCD59A6022
:1006C000D3F8382222F08002C3F83822DA68D10742
:1006D000FCD5C3F870A05A6F42F001025A675A6FF6
:1006E00022F001025A675A6F42F001025A675A6FAC
:1006F000D207FCD59CF802209D67142A6CD80024F0
:10070000404909680C61404902EB8202096801F521
:100710000044256845F001052560256845F002057F
:1007200025603A4C246804F50044256825F002054C
:10073000256043F6FC740D5925F001050D510D5946
:1007400025F002050D5105259CF8011004244F43A6
:10075000C3F898702E4B1B68D96841F08001D960AE
:100760009D62996A41F080019962002159601C6084
:10077000D96821F08001D960D96841F00301D960BE
:10078000D96821F00801D960D96821F00401D96045
:10079000204B1B685A611A6140221A606FF07F4239
:1007A0001D4B1B685A619A61C2780AB31D6100F043
:1007B00049F9012003B0BDE8F08F012256E702227B
:1007C00054E7AEF10F0EBEF10A0F3FF658AF022408
:1007D00054E724F020045AE7282A03D809490124C1
:1007E00009688FE7322A8ED806490224096889E70A
:1007F0001C61DCE71046DDE704000010300000104B
:100800000800001024000010100000100C00001060
:100810001C0000102000001028000010054B9B78E1
:100820005843032390FBF3F0002801DD0138FDD18C
:10083000704700BF300000100146002208B58A4210
:1008400000DB08BD4FF47A70FFF7E8FF0132F6E7EE
:10085000024B00211B689869704700BF28000010F8
:1008600001280CD003D3022811D000207047094B77
:100870001A6843F6FC73D05800F001007047054B2E
:100880001A6843F6FC73D058C0F340007047024B1F
:10089000F6E700BF100000100C000010012811D076
:1008A00002D3022817D070470E4B1A6843F6FC7328
:1008B00021B1D15841F00101D1507047D15821F0F8
:1008C0000101F9E7074B1A6843F6FC7329B1D158C7
:1008D00041F00201F0E7044BF5E7D15821F00201A5
:1008E000EAE700BF100000100C000010024B1B686C
:1008F000586900F0010070471C000010024B1B6893
:100900005869C0F3401070471C00001008B510B9BA
:10091000FFF7ECFFFBE7024B1B681868C0B208BD8D
:100920001C00001008B510B9FFF7E8FFFBE7024B09
:100930001B68196008BD00BF1C0000102DE9F041C4
:10094000202541EA400C4FF03C0E042738214FF09F
:1009500024081820354E346825603468656805F031
:10096000F805282D39D014D8102D03D007D805B399
:10097000082DF3D1C4F808C02760A061EDE7182D59
:100980001ED0202DEAD11423236028230220A36146
:1009900014E0402D2DD006D8302D24D0382DDDD1B7
:1009A000C4F80080E9E7502D2AD0582D35D0482DC5
:1009B000E8E71423236028230120A361BDE8F08128
:1009C0002BB115780132A5602760A161C5E714221B
:1009D00022602822A2610020F0E7013BF1D114221D
:1009E0002260A561F7E71423236028230320A36175
:1009F000E4E7012B8ABF2760C4F818E0A161ACE7E7
:100A0000A468551C14703268013B012B8ABF176023
:100A1000C2F818E091612A469FE70BB1A3681370F2
:100A2000142233681A6028229A61D4E7200000104B
:100A300013460A460121FFF781BF13460A460021EB
:100A4000FFF77CBF62B6704772B6704740404940BE
:100A5000FFF7CAFCFEE70000032A70B414D940EA8D
:100A60000105AD0704460B4622D11D6826681946CC
:100A7000AE42204603F1040304F1040418D1043A01
:100A8000032A20461946F0D8541E72B102780B781A
:100A90009A4208BF641806D00CE010F8012F11F834
:100AA000013F9A4206D1A142F7D1002070BC7047A5
:100AB000541EEBE7D01A70BC704700BF63636363DA
:100AC0007C7C7C7C777777777B7B7B7BF2F2F2F2A6
:100AD0006B6B6B6B6F6F6F6FC5C5C5C530303030DA
:100AE00001010101676767672B2B2B2BFEFEFEFEC2
:100AF000D7D7D7D7ABABABAB76767676CACACACAEE
:100B000082828282C9C9C9C97D7D7D7DFAFAFAFADD
:100B10005959595947474747F0F0F0F0ADADADADE1
:100B2000D4D4D4D4A2A2A2A2AFAFAFAF9C9C9C9CC1
:100B3000A4A4A4A472727272C0C0C0C0B7B7B7B781
:100B4000FDFDFDFD939393932626262636363636F5
:100B50003F3F3F3FF7F7F7F7CCCCCCCC34343434BD
:100B6000A5A5A5A5E5E5E5E5F1F1F1F171717171D5
:100B7000D8D8D8D8313131311515151504040404ED
:100B8000C7C7C7C723232323C3C3C3C31818181851
:100B900096969696050505059A9A9A9A0707070765
:100BA0001212121280808080E2E2E2E2EBEBEBEBC9
:100BB00027272727B2B2B2B27575757509090909D9
:100BC000838383832C2C2C2C1A1A1A1A1B1B1B1B95
:100BD0006E6E6E6E5A5A5A5AA0A0A0A0525252522D
:100BE0003B3B3B3BD6D6D6D6B3B3B3B32929292951
:100BF000E3E3E3E32F2F2F2F848484845353535351
:100C0000D1D1D1D100000000EDEDEDED202020206C
:100C1000FCFCFCFCB1B1B1B15B5B5B5B6A6A6A6A0C
:100C2000CBCBCBCBBEBEBEBE393939394A4A4A4A94
:100C30004C4C4C4C58585858CFCFCFCFD0D0D0D0A8
:100C4000EFEFEFEFAAAAAAAAFBFBFBFB4343434348
:100C50004D4D4D4D3333333385858585454545456C
:100C6000F9F9F9F9020202027F7F7F7F505050505C
:100C70003C3C3C3C9F9F9F9FA8A8A8A85151515124
:100C8000A3A3A3A3404040408F8F8F8F9292929254
:100C90009D9D9D9D38383838F5F5F5F5BCBCBCBC3C
:100CA000B6B6B6B6DADADADA212121211010101040
:100CB000FFFFFFFFF3F3F3F3D2D2D2D2CDCDCDCDF0
:100CC0000C0C0C0C13131313ECECECEC5F5F5F5F7C
:100CD000979797974444444417171717C4C4C4C43C
:100CE000A7A7A7A77E7E7E7E3D3D3D3D64646464EC
:100CF0005D5D5D5D191919197373737360606060D0
:100D0000818181814F4F4F4FDCDCDCDC22222222AB
:100D10002A2A2A2A909090908888888846464646B3
:100D2000EEEEEEEEB8B8B8B814141414DEDEDEDE63
:100D30005E5E5E5E0B0B0B0BDBDBDBDBE0E0E0E023
:100D4000323232323A3A3A3A0A0A0A0A49494949A7
:100D500006060606242424245C5C5C5CC2C2C2C273
:100D6000D3D3D3D3ACACACAC6262626291919191BB
:100D700095959595E4E4E4E479797979E7E7E7E70F
:100D8000C8C8C8C8373737376D6D6D6D8D8D8D8D7F
:100D9000D5D5D5D54E4E4E4EA9A9A9A96C6C6C6C73
:100DA00056565656F4F4F4F4EAEAEAEA65656565DF
:100DB0007A7A7A7AAEAEAEAE08080808BABABABA8B
:100DC00078787878252525252E2E2E2E1C1C1C1C87
:100DD000A6A6A6A6B4B4B4B4C6C6C6C6E8E8E8E8F3
:100DE000DDDDDDDD747474741F1F1F1F4B4B4B4B17
:100DF000BDBDBDBD8B8B8B8B8A8A8A8A70707070EB
:100E00003E3E3E3EB5B5B5B566666666484848485E
:100E100003030303F6F6F6F60E0E0E0E6161616132
:100E20003535353557575757B9B9B9B98686868696
:100E3000C1C1C1C11D1D1D1D9E9E9E9EE1E1E1E13E
:100E4000F8F8F8F89898989811111111696969697A
:100E5000D9D9D9D98E8E8E8E949494949B9B9B9B3A
:100E60001E1E1E1E87878787E9E9E9E9CECECECE12
:100E70005555555528282828DFDFDFDF8C8C8C8CD2
:100E8000A1A1A1A1898989890D0D0D0DBFBFBFBF8A
:100E9000E6E6E6E64242424268686868414141410E
:100EA000999999992D2D2D2D0F0F0F0FB0B0B0B02E
:100EB00054545454BBBBBBBB16161616010204088F
:100EC000102040801B366CD8AB4D9A2F5EBC63C699
:100ED00097356AD4B37DFAEFC5913972E4D3BD6119
:100EE000C29F254A943366CC831D3A74E8CB8D01AA
:100EF000020408102040801B366CD8AB4D9A2F5E40
:100F0000BC63C697356AD4B37DFAEFC5913972E4F4
:100F1000D3BD61C29F254A943366CC831D3A74E8E1
:100F2000CB8D01020408102040801B366CD8AB4DDD
:100F30009A2F5EBC63C697356AD4B37DFAEFC5912C
:100F40003972E4D3BD61C29F254A943366CC831DB8
:100F50003A74E8CB8D01020408102040801B366CE7
:100F6000D8AB4D9A2F5EBC63C697356AD4B37DFA71
:100F7000EFC5913972E4D3BD61C29F254A943366AF
:100F8000CC831D3A74E8CB8D010204081020408008
:100F90001B366CD8AB4D9A2F5EBC63C697356AD4AE
:100FA000B37DFAEFC5913972E4D3BD61C29F254A82
:100FB000943366CC831D3A74E8CB8D01C66363A578
:100FC000F87C7C84EE777799F67B7B8DFFF2F20DCF
:100FD000D66B6BBDDE6F6FB191C5C55460303050BC
:100FE00002010103CE6767A9562B2B7DE7FEFE1990
:100FF000B5D7D7624DABABE6EC76769A8FCACA45C9
:101000001F82829D89C9C940FA7D7D87EFFAFA1552
:10101000B25959EB8E4747C9FBF0F00B41ADADEC2F
:10102000B3D4D4675FA2A2FD45AFAFEA239C9CBFB7
:1010300053A4A4F7E47272969BC0C05B75B7B7C2A5
:10104000E1FDFD1C3D9393AE4C26266A6C36365A64
:101050007E3F3F41F5F7F70283CCCC4F6834345CD8
:1010600051A5A5F4D1E5E534F9F1F108E2717193E8
:10107000ABD8D873623131532A15153F0804040CDC
:1010800095C7C752462323659DC3C35E30181828F1
:10109000379696A10A05050F2F9A9AB50E070709EC
:1010A000241212361B80809BDFE2E23DCDEBEB2663
:1010B0004E2727697FB2B2CDEA75759F1209091BC9
:1010C0001D83839E582C2C74341A1A2E361B1B2D0C
:1010D000DC6E6EB2B45A5AEE5BA0A0FBA45252F67C
:1010E000763B3B4DB7D6D6617DB3B3CE5229297B33
:1010F000DDE3E33E5E2F2F7113848497A65353F5EF
:10110000B9D1D16800000000C1EDED2C4020206075
:10111000E3FCFC1F79B1B1C8B65B5BEDD46A6ABE73
:101120008DCBCB4667BEBED97239394B944A4ADE65
:10113000984C4CD4B05858E885CFCF4ABBD0D06B30
:10114000C5EFEF2A4FAAAAE5EDFBFB16864343C580
:101150009A4D4DD766333355118585948A4545CFD1
:10116000E9F9F91004020206FE7F7F81A05050F0D9
:10117000783C3C44259F9FBA4BA8A8E3A25151F369
:101180005DA3A3FE804040C0058F8F8A3F9292AD41
:10119000219D9DBC70383848F1F5F50463BCBCDF77
:1011A00077B6B6C1AFDADA7542212163201010306C
:1011B000E5FFFF1AFDF3F30EBFD2D26D81CDCD4C0A
:1011C000180C0C1426131335C3ECEC2FBE5F5FE133
:1011D000359797A2884444CC2E17173993C4C45727
:1011E00055A7A7F2FC7E7E827A3D3D47C86464AC79
:1011F000BA5D5DE73219192BE6737395C06060A084
:10120000198181989E4F4FD1A3DCDC7F4422226656
:10121000542A2A7E3B9090AB0B8888838C4646CA22
:10122000C7EEEE296BB8B8D32814143CA7DEDE79DC
:10123000BC5E5EE2160B0B1DADDBDB76DBE0E03B5C
:1012400064323256743A3A4E140A0A1E924949DB05
:101250000C06060A4824246CB85C5CE49FC2C25D9C
:10126000BDD3D36E43ACACEFC46262A6399191A8F2
:10127000319595A4D3E4E437F279798BD5E7E73259
:101280008BC8C8436E373759DA6D6DB7018D8D8CB9
:10129000B1D5D5649C4E4ED249A9A9E0D86C6CB4A6
:1012A000AC5656FAF3F4F407CFEAEA25CA6565AFFF
:1012B000F47A7A8E47AEAEE9100808186FBABAD53C
:1012C000F07878884A25256F5C2E2E72381C1C24F5
:1012D00057A6A6F173B4B4C797C6C651CBE8E823A6
:1012E000A1DDDD7CE874749C3E1F1F21964B4BDD15
:1012F00061BDBDDC0D8B8B860F8A8A85E070709096
:101300007C3E3E4271B5B5C4CC6666AA904848D8CA
:1013100006030305F7F6F6011C0E0E12C26161A367
:101320006A35355FAE5757F969B9B9D017868691D6
:1013300099C1C1583A1D1D27279E9EB9D9E1E138B0
:10134000EBF8F8132B9898B322111133D26969BBCB
:10135000A9D9D970078E8E89339494A72D9B9BB6FB
:101360003C1E1E2215878792C9E9E92087CECE4907
:10137000AA5555FF50282878A5DFDF7A038C8C8F7B
:1013800059A1A1F8098989801A0D0D1765BFBFDA27
:10139000D7E6E631844242C6D06868B8824141C38C
:1013A000299999B05A2D2D771E0F0F117BB0B0CB14
:1013B000A85454FC6DBBBBD62C16163A6363A5C665
:1013C0007C7C84F8777799EE7B7B8DF6F2F20DFFCB
:1013D0006B6BBDD66F6FB1DEC5C5549130305060B8
:1013E000010103026767A9CE2B2B7D56FEFE19E78C
:1013F000D7D762B5ABABE64D76769AECCACA458FC5
:1014000082829D1FC9C940897D7D87FAFAFA15EF4E
:101410005959EBB24747C98EF0F00BFBADADEC412B
:10142000D4D467B3A2A2FD5FAFAFEA459C9CBF23B3
:10143000A4A4F753727296E4C0C05B9BB7B7C275A1
:10144000FDFD1CE19393AE3D26266A4C36365A6C60
:101450003F3F417EF7F702F5CCCC4F8334345C68D4
:10146000A5A5F451E5E534D1F1F108F9717193E2E4
:10147000D8D873AB3131536215153F2A04040C08D8
:10148000C7C7529523236546C3C35E9D18182830ED
:101490009696A13705050F0A9A9AB52F0707090EE8
:1014A0001212362480809B1BE2E23DDFEBEB26CD5F
:1014B0002727694EB2B2CD7F75759FEA09091B12C5
:1014C00083839E1D2C2C74581A1A2E341B1B2D3608
:1014D0006E6EB2DC5A5AEEB4A0A0FB5B5252F6A478
:1014E0003B3B4D76D6D661B7B3B3CE7D29297B522F
:1014F000E3E33EDD2F2F715E848497135353F5A6EB
:10150000D1D168B900000000EDED2CC12020604071
:10151000FCFC1FE3B1B1C8795B5BEDB66A6ABED46F
:10152000CBCB468DBEBED96739394B724A4ADE9461
:101530004C4CD4985858E8B0CFCF4A85D0D06BBB2C
:10154000EFEF2AC5AAAAE54FFBFB16ED4343C5867C
:101550004D4DD79A33335566858594114545CF8ACD
:10156000F9F910E9020206047F7F81FE5050F0A0D5
:101570003C3C44789F9FBA25A8A8E34B5151F3A265
:10158000A3A3FE5D4040C0808F8F8A059292AD3F3D
:101590009D9DBC2138384870F5F504F1BCBCDF6373
:1015A000B6B6C177DADA75AF212163421010302068
:1015B000FFFF1AE5F3F30EFDD2D26DBFCDCD4C8106
:1015C0000C0C141813133526ECEC2FC35F5FE1BE2F
:1015D0009797A2354444CC881717392EC4C4579323
:1015E000A7A7F2557E7E82FC3D3D477A6464ACC875
:1015F0005D5DE7BA19192B32737395E66060A0C080
:10160000818198194F4FD19EDCDC7FA32222664452
:101610002A2A7E549090AB3B8888830B4646CA8C1E
:10162000EEEE29C7B8B8D36B14143C28DEDE79A7D8
:101630005E5EE2BC0B0B1D16DBDB76ADE0E03BDB58
:10164000323256643A3A4E740A0A1E144949DB9201
:1016500006060A0C24246C485C5CE4B8C2C25D9F98
:10166000D3D36EBDACACEF436262A6C49191A839EE
:101670009595A431E4E437D379798BF2E7E732D555
:10168000C8C8438B3737596E6D6DB7DA8D8D8C01B5
:10169000D5D564B14E4ED29CA9A9E0496C6CB4D8A2
:1016A0005656FAACF4F407F3EAEA25CF6565AFCAFB
:1016B0007A7A8EF4AEAEE94708081810BABAD56F38
:1016C000787888F025256F4A2E2E725C1C1C2438F1
:1016D000A6A6F157B4B4C773C6C65197E8E823CBA2
:1016E000DDDD7CA174749CE81F1F213E4B4BDD9611
:1016F000BDBDDC618B8B860D8A8A850F707090E092
:101700003E3E427CB5B5C4716666AACC4848D890C6
:1017100003030506F6F601F70E0E121C6161A3C263
:1017200035355F6A5757F9AEB9B9D06986869117D2
:10173000C1C158991D1D273A9E9EB927E1E138D9AC
:10174000F8F813EB9898B32B111133226969BBD2C7
:10175000D9D970A98E8E89079494A7339B9BB62DF7
:101760001E1E223C87879215E9E920C9CECE498703
:101770005555FFAA28287850DFDF7AA58C8C8F0377
:10178000A1A1F859898980090D0D171ABFBFDA6523
:10179000E6E631D74242C6846868B8D04141C38288
:1017A0009999B0292D2D775A0F0F111EB0B0CB7B10
:1017B0005454FCA8BBBBD66D16163A2CA5C6636361
:1017C00084F87C7C99EE77778DF67B7B0DFFF2F2C7
:1017D000BDD66B6BB1DE6F6F5491C5C550603030B4
:1017E00003020101A9CE67677D562B2B19E7FEFE88
:1017F00062B5D7D7E64DABAB9AEC7676458FCACAC1
:101800009D1F82824089C9C987FA7D7D15EFFAFA4A
:10181000EBB25959C98E47470BFBF0F0EC41ADAD27
:1018200067B3D4D4FD5FA2A2EA45AFAFBF239C9CAF
:10183000F753A4A496E472725B9BC0C0C275B7B79D
:101840001CE1FDFDAE3D93936A4C26265A6C36365C
:10185000417E3F3F02F5F7F74F83CCCC5C683434D0
:10186000F451A5A534D1E5E508F9F1F193E27171E0
:1018700073ABD8D8536231313F2A15150C080404D4
:101880005295C7C7654623235E9DC3C328301818E9
:10189000A13796960F0A0505B52F9A9A090E0707E4
:1018A000362412129B1B80803DDFE2E226CDEBEB5B
:1018B000694E2727CD7FB2B29FEA75751B120909C1
:1018C0009E1D838374582C2C2E341A1A2D361B1B04
:1018D000B2DC6E6EEEB45A5AFB5BA0A0F6A4525274
:1018E0004D763B3B61B7D6D6CE7DB3B37B5229292B
:1018F0003EDDE3E3715E2F2F97138484F5A65353E7
:1019000068B9D1D1000000002CC1EDED604020206D
:101910001FE3FCFCC879B1B1EDB65B5BBED46A6A6B
:10192000468DCBCBD967BEBE4B723939DE944A4A5D
:10193000D4984C4CE8B058584A85CFCF6BBBD0D028
:101940002AC5EFEFE54FAAAA16EDFBFBC586434378
:10195000D79A4D4D5566333394118585CF8A4545C9
:1019600010E9F9F90604020281FE7F7FF0A05050D1
:1019700044783C3CBA259F9FE34BA8A8F3A2515161
:10198000FE5DA3A3C08040408A058F8FAD3F929239
:10199000BC219D9D4870383804F1F5F5DF63BCBC6F
:1019A000C177B6B675AFDADA634221213020101064
:1019B0001AE5FFFF0EFDF3F36DBFD2D24C81CDCD02
:1019C00014180C0C352613132FC3ECECE1BE5F5F2B
:1019D000A2359797CC884444392E17175793C4C41F
:1019E000F255A7A782FC7E7E477A3D3DACC8646471
:1019F000E7BA5D5D2B32191995E67373A0C060607C
:101A000098198181D19E4F4F7FA3DCDC664422224E
:101A10007E542A2AAB3B9090830B8888CA8C46461A
:101A200029C7EEEED36BB8B83C28141479A7DEDED4
:101A3000E2BC5E5E1D160B0B76ADDBDB3BDBE0E054
:101A4000566432324E743A3A1E140A0ADB924949FD
:101A50000A0C06066C482424E4B85C5C5D9FC2C294
:101A60006EBDD3D3EF43ACACA6C46262A8399191EA
:101A7000A431959537D3E4E48BF2797932D5E7E751
:101A8000438BC8C8596E3737B7DA6D6D8C018D8DB1
:101A900064B1D5D5D29C4E4EE049A9A9B4D86C6C9E
:101AA000FAAC565607F3F4F425CFEAEAAFCA6565F7
:101AB0008EF47A7AE947AEAE18100808D56FBABA34
:101AC00088F078786F4A2525725C2E2E24381C1CED
:101AD000F157A6A6C773B4B45197C6C623CBE8E89E
:101AE0007CA1DDDD9CE87474213E1F1FDD964B4B0D
:101AF000DC61BDBD860D8B8B850F8A8A90E070708E
:101B0000427C3E3EC471B5B5AACC6666D8904848C2
:101B10000506030301F7F6F6121C0E0EA3C261615F
:101B20005F6A3535F9AE5757D069B9B991178686CE
:101B30005899C1C1273A1D1DB9279E9E38D9E1E1A8
:101B400013EBF8F8B32B989833221111BBD26969C3
:101B500070A9D9D989078E8EA7339494B62D9B9BF3
:101B6000223C1E1E9215878720C9E9E94987CECEFF
:101B7000FFAA5555785028287AA5DFDF8F038C8C73
:101B8000F859A1A180098989171A0D0DDA65BFBF1F
:101B900031D7E6E6C6844242B8D06868C382414184
:101BA000B0299999775A2D2D111E0F0FCB7BB0B00C
:101BB000FCA85454D66DBBBB3A2C161663A5C6635D
:101BC0007C84F87C7799EE777B8DF67BF20DFFF2C3
:101BD0006BBDD66B6FB1DE6FC55491C530506030B0
:101BE0000103020167A9CE672B7D562BFE19E7FE84
:101BF000D762B5D7ABE64DAB769AEC76CA458FCABD
:101C0000829D1F82C94089C97D87FA7DFA15EFFA46
:101C100059EBB25947C98E47F00BFBF0ADEC41AD23
:101C2000D467B3D4A2FD5FA2AFEA45AF9CBF239CAB
:101C3000A4F753A47296E472C05B9BC0B7C275B799
:101C4000FD1CE1FD93AE3D93266A4C26365A6C3658
:101C50003F417E3FF702F5F7CC4F83CC345C6834CC
:101C6000A5F451A5E534D1E5F108F9F17193E271DC
:101C7000D873ABD831536231153F2A15040C0804D0
:101C8000C75295C723654623C35E9DC318283018E5
:101C900096A13796050F0A059AB52F9A07090E07E0
:101CA00012362412809B1B80E23DDFE2EB26CDEB57
:101CB00027694E27B2CD7FB2759FEA75091B1209BD
:101CC000839E1D832C74582C1A2E341A1B2D361B00
:101CD0006EB2DC6E5AEEB45AA0FB5BA052F6A45270
:101CE0003B4D763BD661B7D6B3CE7DB3297B522927
:101CF000E33EDDE32F715E2F8497138453F5A653E3
:101D0000D168B9D100000000ED2CC1ED2060402069
:101D1000FC1FE3FCB1C879B15BEDB65B6ABED46A67
:101D2000CB468DCBBED967BE394B72394ADE944A59
:101D30004CD4984C58E8B058CF4A85CFD06BBBD024
:101D4000EF2AC5EFAAE54FAAFB16EDFB43C5864374
:101D50004DD79A4D335566338594118545CF8A45C5
:101D6000F910E9F9020604027F81FE7F50F0A050CD
:101D70003C44783C9FBA259FA8E34BA851F3A2515D
:101D8000A3FE5DA340C080408F8A058F92AD3F9235
:101D90009DBC219D38487038F504F1F5BCDF63BC6B
:101DA000B6C177B6DA75AFDA216342211030201060
:101DB000FF1AE5FFF30EFDF3D26DBFD2CD4C81CDFE
:101DC0000C14180C13352613EC2FC3EC5FE1BE5F27
:101DD00097A2359744CC884417392E17C45793C41B
:101DE000A7F255A77E82FC7E3D477A3D64ACC8646D
:101DF0005DE7BA5D192B32197395E67360A0C06078
:101E0000819819814FD19E4FDC7FA3DC226644224A
:101E10002A7E542A90AB3B9088830B8846CA8C4616
:101E2000EE29C7EEB8D36BB8143C2814DE79A7DED0
:101E30005EE2BC5E0B1D160BDB76ADDBE03BDBE050
:101E4000325664323A4E743A0A1E140A49DB9249F9
:101E5000060A0C06246C48245CE4B85CC25D9FC290
:101E6000D36EBDD3ACEF43AC62A6C46291A83991E6
:101E700095A43195E437D3E4798BF279E732D5E74D
:101E8000C8438BC837596E376DB7DA6D8D8C018DAD
:101E9000D564B1D54ED29C4EA9E049A96CB4D86C9A
:101EA00056FAAC56F407F3F4EA25CFEA65AFCA65F3
:101EB0007A8EF47AAEE947AE08181008BAD56FBA30
:101EC0007888F078256F4A252E725C2E1C24381CE9
:101ED000A6F157A6B4C773B4C65197C6E823CBE89A
:101EE000DD7CA1DD749CE8741F213E1F4BDD964B09
:101EF000BDDC61BD8B860D8B8A850F8A7090E0708A
:101F00003E427C3EB5C471B566AACC6648D89048BE
:101F100003050603F601F7F60E121C0E61A3C2615B
:101F2000355F6A3557F9AE57B9D069B986911786CA
:101F3000C15899C11D273A1D9EB9279EE138D9E1A4
:101F4000F813EBF898B32B981133221169BBD269BF
:101F5000D970A9D98E89078E94A733949BB62D9BEF
:101F60001E223C1E87921587E920C9E9CE4987CEFB
:101F700055FFAA5528785028DF7AA5DF8C8F038C6F
:101F8000A1F859A1898009890D171A0DBFDA65BF1B
:101F9000E631D7E642C6844268B8D06841C3824180
:101FA00099B029992D775A2D0F111E0FB0CB7BB008
:101FB00054FCA854BBD66DBB163A2C160110100069
:101FC000130DDCD07A3C82762E529D03C1B6AED67C
:101FD0002B7E151628AED2A6ABF7158809CF4F3C3D
:101FE0003243F6A8885A308D313198A2E037073451
:101FF0003925841D02DC09FBDC118597196A0B3237
:102000004145532E456E6328206B2C206D202920DE
:102010003D3D2063004145532E456E6328206B2CC7
:0C202000206D202920213D2063000000DD
:04202C0000000000B0
:10203000000C0C01008004400040044000000050EF
:1020400000000150000002500000035000800040DA
:0C2050000000004000C0034000E000E081
:00000001FF
