:1000000000200010430000004100000041000000FB
:1000100041000000410000004100000041000000DC
:1000200041000000410000004100000041000000CC
:1000300041000000410000004100000041000000BC
:10004000FEE70B480B490C4A091A05D013780370D8
:10005000013201300139F9DC08480949091A04D094
:100060005B40037001300139FBDC00F0E3FCFEE78C
:10007000000000102C000010100D000030000010D7
:1000800030000010400D000010B50B780278447B62
:100090005340124A145D63400370837B4478D35C01
:1000A00063404370C37B8478D35C63408370037B7D
:1000B000D45CC3785C40034603F8034F0C780F30E0
:1000C000224492F809210A7013F8032C13F8011F37
:1000D0004A4098421A70F7D110BD00BFA40A000030
:1000E00010B5431E01390F3013F8012F11F8014FDD
:1000F000834282EA04021A70F6D110BD0449431EFD
:100100000F3013F8012F8A5C83421A70F9D17047BF
:10011000A40A00004179427A437B10B544784271C9
:100120004473827A8478417043728179837B8472CC
:100130008173C478C17982708371C27AC37BC471C0
:10014000C172C273C37010BD2DE9F043DFF87C901B
:10015000031D143013F8041C13F8028C13F8032C3D
:1001600013F8015C09EB010481EA020E94F809C15D
:1001700009EB020482EA080294F809616A4009EB7B
:10018000080481EA080194F8094109EB05078CEAA3
:100190000202694097F8097172408EEA05054E40E7
:1001A0008EEA080E66408CEA0E0C6C407C4087EAB2
:1001B0000C0703F8042C03F8036C03F8024C03F853
:1001C000017C04339842C5D1BDE8F083A40A000045
:1001D0000B09092B94BF3033373301F00F01092984
:1001E0000370CBB2D4BF303337334370704773B52D
:1001F00006460D4601A8C9B2FFF7EAFF9DF80410B4
:10020000002000F083FB9DF80510002000F07EFB2D
:100210003A21002000F07AFB3446A31B9D4205DC06
:100220000D21002000F072FB02B070BD14F8011B1C
:1002300001A8FFF7CDFF9DF80410002000F066FB39
:100240009DF80510002000F061FBE6E70A784B7886
:100250002F2A1ADDA2F13A01062916D9462A14DC02
:100260002F2B12DDA3F13A0106290ED9462B0CDC07
:10027000402ACCBF373A303A402BCCBF373B303BDB
:1002800003EB02130370002070474FF0FF307047FC
:1002900073B5064600200D4600F02CFB8DF80400D7
:1002A000002000F027FB8DF80500002000F022FB65
:1002B0003A2806D101A90DF10200FFF7C7FF044655
:1002C00030B39DF80410002000F020FB4FF0FF3405
:1002D000204602B070BD002000F00CFB0A288DF80B
:1002E0000400F5D00D28F3D0002000F003FB0A280D
:1002F0008DF80500ECD00D28EAD001A90DF103001E
:10030000FFF7A4FF0028E3D19DF8033033550134F3
:10031000AC42DDDA9DF80230AB42DCDAD8E7FF29E7
:1003200000DC64E7704770470123F0B58BB006AE80
:100330008DF8073005460B46344601F1100C374660
:1003400018685968083303C763453E46F7D102ABC6
:100350001E4602F1100C1F4610685168083203C790
:1003600062453B46F7D131462046FFF7B9FE0927E3
:100370002046FFF7C3FE2046FFF7CCFEFFF7E4FE62
:100380000DF107013046FFF77FFE31462046FFF7AB
:10039000A7FE013FECD12046FFF7B0FE2046FFF755
:1003A000B9FE0DF107013046FFF76EFE31462046DB
:1003B000FFF796FE2B460AAD224603CAAA421860F2
:1003C0005960144603F10803F6D10BB0F0BD00BF2D
:1003D0002DE9F0475C4CA4B02068029002A800F020
:1003E000BFF8002800F0A980231D0BAA143415467D
:1003F0002646174618685968083303C7A3423A4689
:10040000F7D101216846FFF743FF0128074640F076
:1004100099809DF80040012C64D04CD3022CF0D17F
:100420000FAA9146494B144618685968083303C40B
:10043000B3422246F7D113AA9046454B03F1100769
:10044000144618685968083303C4BB422246F7D1E2
:1004500017ACA2463F4B03F11002274618685968B3
:10046000083303C793423C46F7D10121002000F036
:1004700009FA4A4601AB41461BA8FFF755FF002188
:10048000084600F0FFF9102251461BA800F0D8FAE8
:10049000002845D1304B1FAA03F1100714461868F5
:1004A0005968083303C4BB422246F7D118681421A7
:1004B00010601FA813E04FF0100824AC04F8148D4E
:1004C00001462046FFF793FE394620468DF87C8092
:1004D000FFF78DFE0023394620468DF87C30FFF76C
:1004E00086FE8EE7102107A8FFF7D2FE10280746E8
:1004F00087D1002101A8FFF7CBFE8046002880D1DC
:10050000214600F0BFF901AB2A4607A903A8FFF76F
:100510000BFF4146404600F0B5F9394603A8DEE737
:100520000E4B1FAA03F110071446186859680833C8
:1005300003C4BB422246F7D1B8E74FF0FF3024B0E6
:10054000BDE8F0870020FAE7AD0C0000B10C000018
:10055000C10C0000D10C0000E10C0000F60C000002
:100560002DE9F74F012110279D4C066823689D4D0A
:10057000D3F880205FFA86F842F48032C3F88020F6
:10058000994A884512682E609167D167176140F2D9
:100590000127C2F8A410C2F8A81017635763D3F854
:1005A0008020AC4642F02002C3F88020D3F880209F
:1005B000009442F04002C3F88020D3F8802042F437
:1005C0008052C3F880205A6822F002025A605A68AA
:1005D00042F002025A6005D026D3B8F1020F05D0CE
:1005E0000020DBE041464FF0030A00E08A464FF06E
:1005F0000009C6F307220192C6F307460125DDF87C
:1006000004E009F1010707FB0EF4B4FBF5FB05FB61
:100610001B420AB95E4509D00135B5F5807FF4D19A
:10062000202FB946EAD1DBE70021DCE766009C3EDB
:10063000A42E0FD9A6009C3EA42E40F2B280E60064
:100640009C3EA42E40F2AF8024019C3CA42C00F2DE
:10065000C58003220EF1FF34132C49EA421200F246
:10066000A48000241C62D3F83842B8F1000F40F097
:10067000A48044F02004C3F83842C82300BF013BE3
:10068000FCD1009B1B681964596C41F0010159644D
:10069000596C21F001015964596C41F00101596410
:1006A000596CCC07FCD59A60D3F8382222F080022E
:1006B000C3F83822DA68D107FCD5C3F870A05A6FA6
:1006C00042F001025A675A6F22F001025A675A6FCC
:1006D00042F001025A675A6FD207FCD59CF80220FB
:1006E0009D67142A6CD80024404909680C61404970
:1006F00002EB8202096801F50044256845F0010516
:100700002560256845F0020525603A4C246804F50B
:100710000044256825F00205256043F6FC740D5958
:1007200025F001050D510D5925F002050D51052546
:100730009CF8011004244F43C3F898702E4B1B689B
:10074000D96841F08001D9609D62996A41F08001C9
:100750009962002159601C60D96821F08001D9603C
:10076000D96841F00301D960D96821F00801D96046
:10077000D96821F00401D960204B1B685A611A61C5
:1007800040221A606FF07F421D4B1B685A619A61CC
:10079000C2780AB31D6100F049F9012003B0BDE839
:1007A000F08F012256E7022254E7AEF10F0EBEF1A0
:1007B0000A0F3FF658AF022454E724F020045AE70A
:1007C000282A03D80949012409688FE7322A8ED8DC
:1007D00006490224096889E71C61DCE71046DDE769
:1007E0000400001030000010080000102400001069
:1007F000100000100C0000101C0000102000001061
:1008000028000010054B9B785843032390FBF3F01E
:10081000002801DD0138FDD1704700BF3000001015
:100820000146002208B58A4200DB08BD4FF47A7009
:10083000FFF7E8FF0132F6E7024B00211B689869D9
:10084000704700BF2800001001280CD003D30228F5
:1008500011D000207047094B1A6843F6FC73D0583A
:1008600000F001007047054B1A6843F6FC73D0583E
:10087000C0F340007047024BF6E700BF10000010C5
:100880000C000010012811D002D3022817D07047A5
:100890000E4B1A6843F6FC7321B1D15841F00101A7
:1008A000D1507047D15821F00101F9E7074B1A6880
:1008B00043F6FC7329B1D15841F00201F0E7044B33
:1008C000F5E7D15821F00201EAE700BF100000105F
:1008D0000C000010024B1B68586900F001007047C3
:1008E0001C000010024B1B685869C0F34010704791
:1008F0001C00001008B510B9FFF7ECFFFBE7024B36
:100900001B681868C0B208BD1C00001008B510B9FB
:10091000FFF7E8FFFBE7024B1B68196008BD00BF4B
:100920001C0000102DE9F041202541EA400C4FF059
:100930003C0E042738214FF024081820354E346827
:1009400025603468656805F0F805282D39D014D87D
:10095000102D03D007D805B3082DF3D1C4F808C073
:100960002760A061EDE7182D1ED0202DEAD11423B9
:10097000236028230220A36114E0402D2DD006D847
:10098000302D24D0382DDDD1C4F80080E9E7502D7A
:100990002AD0582D35D0482DE8E71423236028238A
:1009A0000120A361BDE8F0812BB115780132A5606B
:1009B0002760A161C5E7142222602822A2610020DD
:1009C000F0E7013BF1D114222260A561F7E714237F
:1009D000236028230320A361E4E7012B8ABF27605B
:1009E000C4F818E0A161ACE7A468551C1470326823
:1009F000013B012B8ABF1760C2F818E091612A46BB
:100A00009FE70BB1A3681370142233681A60282281
:100A10009A61D4E72000001013460A460121FFF72F
:100A200081BF13460A460021FFF77CBF62B67047BC
:100A300072B6704740404940FFF7CAFCFEE700002D
:100A4000032A70B414D940EA0105AD0704460B46E9
:100A500022D11D6826681946AE42204603F10403E0
:100A600004F1040418D1043A032A20461946F0D8A8
:100A7000541E72B102780B789A4208BF641806D0EF
:100A80000CE010F8012F11F8013F9A4206D1A14263
:100A9000F7D1002070BC7047541EEBE7D01A70BC31
:100AA000704700BF637C777BF26B6FC53001672BAB
:100AB000FED7AB76CA82C97DFA5947F0ADD4A2AF52
:100AC0009CA472C0B7FD9326363FF7CC34A5E5F160
:100AD00071D8311504C723C31896059A071280E20E
:100AE000EB27B27509832C1A1B6E5AA0523BD6B362
:100AF00029E32F8453D100ED20FCB15B6ACBBE39D2
:100B00004A4C58CFD0EFAAFB434D338545F9027FBD
:100B1000503C9FA851A3408F929D38F5BCB6DA2176
:100B200010FFF3D2CD0C13EC5F974417C4A77E3DA2
:100B3000645D197360814FDC222A908846EEB814F8
:100B4000DE5E0BDBE0323A0A4906245CC2D3AC62BB
:100B50009195E479E7C8376D8DD54EA96C56F4EAC6
:100B6000657AAE08BA78252E1CA6B4C6E8DD741FD7
:100B70004BBD8B8A703EB5664803F60E613557B99A
:100B800086C11D9EE1F8981169D98E949B1E87E954
:100B9000CE5528DF8CA1890DBFE6426841992D0F03
:100BA000B054BB160000000000000000000002046A
:100BB00006080A0C0E10121416181A1C1E202224E5
:100BC00026282A2C2E30323436383A3C3E404244D5
:100BD00046484A4C4E50525456585A5C5E606264C5
:100BE00066686A6C6E70727476787A7C7E808284B5
:100BF00086888A8C8E90929496989A9C9EA0A2A4A5
:100C0000A6A8AAACAEB0B2B4B6B8BABCBEC0C2C494
:100C1000C6C8CACCCED0D2D4D6D8DADCDEE0E2E484
:100C2000E6E8EAECEEF0F2F4F6F8FAFCFE1B191F27
:100C30001D131117150B090F0D030107053B393F54
:100C40003D333137352B292F2D232127255B595F44
:100C50005D535157554B494F4D434147457B797F34
:100C60007D737177756B696F6D636167659B999F24
:100C70009D939197958B898F8D83818785BBB9BF14
:100C8000BDB3B1B7B5ABA9AFADA3A1A7A5DBD9DF04
:100C9000DDD3D1D7D5CBC9CFCDC3C1C7C5FBF9FFF4
:100CA000FDF3F1F7F5EBE9EFEDE3E1E7E501101016
:100CB000002B7E151628AED2A6ABF7158809CF4FAC
:100CC0003C3243F6A8885A308D313198A2E037077C
:100CD000343925841D02DC09FBDC118597196A0B68
:100CE000324145532E456E6328206B2C206D202900
:100CF000203D3D2063004145532E456E6328206B07
:0C0D00002C206D202920213D20630000E4
:040D0C0000000000E3
:100D1000000C0C0100800440004004400000005022
:100D2000000001500000025000000350008000400D
:0C0D30000000004000C0034000E000E0B4
:00000001FF
