:1000000000200010430000004100000041000000FB
:1000100041000000410000004100000041000000DC
:1000200041000000410000004100000041000000CC
:1000300041000000410000004100000041000000BC
:10004000FEE70B480B490C4A091A05D013780370D8
:10005000013201300139F9DC08480949091A04D094
:100060005B40037001300139FBDC00F0B9FCFEE7B6
:10007000000000102C000010C00A0000300000102A
:1000800030000010F00A000010F0800F4FEA40002E
:1000900018BF80F01B00C0B2704702460723002043
:1000A00010B5FFF7F1FF41FA03F4E40744BF5040F5
:1000B000C0B213F1FF33F4D210BD70B50146FFF7A3
:1000C000ECFF0646FFF7E9FF314605463046FFF7ED
:1000D000E4FF014604462846FFF7DFFF05462046B9
:1000E000FFF7DBFF01462846FFF7D7FF0146FFF782
:1000F000D4FF0146FFF7D1FF044601462846FFF72B
:10010000CCFF01462046FFF7C8FFBDE8704001461E
:10011000FFF7C3BF08B5FFF7D0FF80F0630383EAA2
:10012000D01383EA901383EA501383EA101383EA0F
:10013000400383EA800383EAC00383EA0010C0B26D
:1001400008BD38B504460D46407BFFF7E3FF227833
:100150002B78534058402070A07BFFF7DBFF63787B
:1001600058406070E07BFFF7D5FFA3785840A0703F
:10017000207BFFF7CFFFE3785840234603F8030FB7
:100180002878FFF781FF0F34287013F8032C13F839
:10019000011F4A409C421A70F7D138BD10B5431E6A
:1001A00001390F3013F8012F11F8014F834282EA11
:1001B00004021A70F6D110BD38B5451E00F10F04C7
:1001C00015F8010FFFF7A6FFA5422870F8D138BD3A
:1001D0004179427A437B10B5447842714473827A04
:1001E0008478417043728179837B84728173C4788F
:1001F000C17982708371C27AC37BC471C172C273C8
:10020000C37010BD2DE9F843031D00F1140813F865
:10021000046C13F8035C304613F8024C13F8017CAD
:10022000FFF732FF81462846FFF72EFF02462046A1
:10023000FFF72AFF01463846FFF726FF89EA020C3E
:100240004A40414089EA000085EA0C0C7240714046
:10025000464084EA0C0C62406940754087EA0C0C09
:100260007A406C404F4003F804CC03F8032C03F8A9
:10027000027C03F8014C04339845C8D1BDE8F883EB
:1002800070B506460D460024AC4205DB0A2100206D
:1002900000F012FB204670BD002000F001FB0D288D
:1002A000F4D00A28F2D030550134EDE770B5054698
:1002B0000E460446631B9E4205DCBDE870400A21E1
:1002C000002000F0F9BA14F8011B002000F0F4FA45
:1002D000F0E770470123F0B58BB006AE8DF807301C
:1002E00005460B46344601F1100C3746186859682C
:1002F000083303C763453E46F7D102AB1E4602F101
:10030000100C1F4610685168083203C762453B460F
:10031000F7D131462046FFF741FF09272046FFF776
:100320004BFF2046FFF754FFFFF76CFF0DF107016D
:100330003046FFF706FF31462046FFF72FFF013F0B
:10034000ECD12046FFF738FF2046FFF741FF0DF1C3
:1003500007013046FFF7F5FE31462046FFF71EFF46
:100360002B460AAD224603CAAA42186059601446B9
:1003700003F10803F6D10BB0F0BD00002DE9F04306
:100380005C4CA5B02068029002A800F0BFF80028DD
:1003900000F0A9800BAA1646231D143415461868D0
:1003A0005968083303C5A3422A46F7D1012168469C
:1003B000FFF766FF0128044640F09A809DF8003060
:1003C000312B19D0322B35D0302BEFD1102724AD63
:1003D00005F8147D01462846FFF768FF21462846A8
:1003E0008DF87C70FFF762FF0023214628468DF8C8
:1003F0007C30FFF75BFFD9E7102107A8FFF740FF2C
:1004000010280546D2D1002101A8FFF739FF074681
:100410000028CBD1214600F00BFA01AB324607A9E8
:1004200003A8FFF757FF3946384600F001FA29467E
:1004300003A8DEE70FAA90462F4B03F110051446E0
:1004400018685968083303C4AB422246F7D113AC8D
:1004500027462A4B03F110052246186859680833CD
:1004600003C2AB421446F7D117ACA146244B03F1AB
:100470001002254618685968083303C593422C4674
:10048000F7D10121002000F0D3F9424601AB3946F3
:100490001BA8FFF71FFF0021084600F0C9F9102232
:1004A00049461BA800F0A2FA80B9164B1FAA03F117
:1004B0001005144618685968083303C4AB42224635
:1004C000F7D11868142110601FA892E70E4B1FAADD
:1004D00003F11005144618685968083303C4AB4289
:1004E0002246F7D1EDE74FF0FF3025B0BDE8F083AD
:1004F0000020FAE7500A0000640A0000740A0000B5
:10050000840A0000940A0000A90A00002DE9F74FB0
:10051000012110279D4C066823689D4DD3F880204B
:100520005FFA86F842F48032C3F88020994A884501
:1005300012682E609167D167176140F20127C2F8F7
:10054000A410C2F8A81017635763D3F88020AC46F4
:1005500042F02002C3F88020D3F88020009442F0BB
:100560004002C3F88020D3F8802042F48052C3F8C0
:1005700080205A6822F002025A605A6842F0020251
:100580005A6005D026D3B8F1020F05D00020DBE079
:1005900041464FF0030A00E08A464FF00009C6F3D7
:1005A00007220192C6F307460125DDF804E009F1B0
:1005B000010707FB0EF4B4FBF5FB05FB1B420AB970
:1005C0005E4509D00135B5F5807FF4D1202FB946BD
:1005D000EAD1DBE70021DCE766009C3EA42E0FD9C0
:1005E000A6009C3EA42E40F2B280E6009C3EA42EC3
:1005F00040F2AF8024019C3CA42C00F2C580032271
:100600000EF1FF34132C49EA421200F2A4800024B8
:100610001C62D3F83842B8F1000F40F0A48044F0D7
:100620002004C3F83842C82300BF013BFCD1009B23
:100630001B681964596C41F001015964596C21F02F
:1006400001015964596C41F001015964596CCC079E
:10065000FCD59A60D3F8382222F08002C3F8382201
:10066000DA68D107FCD5C3F870A05A6F42F00102D6
:100670005A675A6F22F001025A675A6F42F001021C
:100680005A675A6FD207FCD59CF802209D67142A3E
:100690006CD80024404909680C61404902EB820291
:1006A000096801F50044256845F0010525602568C5
:1006B00045F0020525603A4C246804F5004425689D
:1006C00025F00205256043F6FC740D5925F001055F
:1006D0000D510D5925F002050D5105259CF801100D
:1006E00004244F43C3F898702E4B1B68D96841F01F
:1006F0008001D9609D62996A41F080019962002170
:1007000059601C60D96821F08001D960D96841F036
:100710000301D960D96821F00801D960D96821F0B6
:100720000401D960204B1B685A611A6140221A608B
:100730006FF07F421D4B1B685A619A61C2780AB301
:100740001D6100F049F9012003B0BDE8F08F0122DE
:1007500056E7022254E7AEF10F0EBEF10A0F3FF644
:1007600058AF022454E724F020045AE7282A03D87B
:100770000949012409688FE7322A8ED806490224E4
:10078000096889E71C61DCE71046DDE7040000101A
:1007900030000010080000102400001010000010AD
:1007A0000C0000101C000010200000102800001099
:1007B000054B9B785843032390FBF3F0002801DDA1
:1007C0000138FDD1704700BF300000100146002203
:1007D00008B58A4200DB08BD4FF47A70FFF7E8FFE6
:1007E0000132F6E7024B00211B689869704700BF91
:1007F0002800001001280CD003D3022811D00020BB
:100800007047094B1A6843F6FC73D05800F001009A
:100810007047054B1A6843F6FC73D058C0F340008C
:100820007047024BF6E700BF100000100C000010EC
:10083000012811D002D3022817D070470E4B1A6836
:1008400043F6FC7321B1D15841F00101D1507047FA
:10085000D15821F00101F9E7074B1A6843F6FC7300
:1008600029B1D15841F00201F0E7044BF5E7D15826
:1008700021F00201EAE700BF100000100C00001098
:10088000024B1B68586900F0010070471C00001003
:10089000024B1B685869C0F3401070471C000010E1
:1008A00008B510B9FFF7ECFFFBE7024B1B681868AF
:1008B000C0B208BD1C00001008B510B9FFF7E8FF72
:1008C000FBE7024B1B68196008BD00BF1C0000104D
:1008D0002DE9F041202541EA400C4FF03C0E042761
:1008E00038214FF024081820354E346825603468CC
:1008F000656805F0F805282D39D014D8102D03D0DF
:1009000007D805B3082DF3D1C4F808C02760A0614B
:10091000EDE7182D1ED0202DEAD1142323602823C3
:100920000220A36114E0402D2DD006D8302D24D014
:10093000382DDDD1C4F80080E9E7502D2AD0582D9C
:1009400035D0482DE8E71423236028230120A36134
:10095000BDE8F0812BB115780132A5602760A16157
:10096000C5E7142222602822A2610020F0E7013BA3
:10097000F1D114222260A561F7E714232360282314
:100980000320A361E4E7012B8ABF2760C4F818E0C5
:10099000A161ACE7A468551C14703268013B012BBF
:1009A0008ABF1760C2F818E091612A469FE70BB131
:1009B000A3681370142233681A6028229A61D4E75E
:1009C0002000001013460A460121FFF781BF13469D
:1009D0000A460021FFF77CBF62B6704772B67047C7
:1009E00040404940FFF7CAFCFEE70000032A70B40C
:1009F00014D940EA0105AD0704460B4622D11D6813
:100A000026681946AE42204603F1040304F10404AB
:100A100018D1043A032A20461946F0D8541E72B160
:100A200002780B789A4208BF641806D00CE010F8E0
:100A3000012F11F8013F9A4206D1A142F7D10020BF
:100A400070BC7047541EEBE7D01A70BC704700BFF3
:100A500001101000130DDCD07A3C82762E529D03DB
:100A6000C1B6AED62B7E151628AED2A6ABF715882A
:100A700009CF4F3C3243F6A8885A308D313198A2C5
:100A8000E03707343925841D02DC09FBDC1185972A
:100A9000196A0B324145532E456E6328206B2C207A
:100AA0006D2029203D3D2063004145532E456E6356
:100AB00028206B2C206D202920213D206300000080
:100AC000000C0C0100800440004004400000005075
:100AD0000000015000000250000003500080004060
:0C0AE0000000004000C0034000E000E007
:00000001FF
