:1000000000200010430000004100000041000000FB
:1000100041000000410000004100000041000000DC
:1000200041000000410000004100000041000000CC
:1000300041000000410000004100000041000000BC
:10004000FEE70B480B490C4A091A05D013780370D8
:10005000013201300139F9DC08480949091A04D094
:100060005B40037001300139FBDC00F03BFFFEE731
:10007000000000102C000010B01100003000001033
:1000800030000010E01100000F2370B540F823305D
:1000900013F1FF33FAD210230F3100F1400411F8AD
:1000A000015954F8046D95FBF3F203FB1252013B26
:1000B00050F82250012B40F822602560EFD170BD2E
:1000C00010B50B780278447B5340124A145D6340AC
:1000D0000370837B4478D35C63404370C37B847834
:1000E000D35C63408370037BD45CC3785C4003467D
:1000F00003F8034F0C780F30224492F809210A705C
:1001000013F8032C13F8011F4A4098421A70F7D1D4
:1001100010BD00BF540F0000F0B5059D477B6C7803
:1001200090F800C067405C78D75D84EA0C0491F8D1
:1001300000C09DF8186084EA0C047C400470AC7820
:1001400090F80EC047788CEA040C5C78674012F88F
:100150000C4090F80FC07C404470EC7887788CEAB3
:10016000040C5C78674012F80C4090F803C07C40A7
:1001700084702C78077B67405C78D25D84EA0C043D
:100180006240044604F8032F0F78104A3A4492F86C
:1001900009210A7004211F7814F8032C7A4014F8FE
:1001A000017F7A4001F00307EF5D01317A401029A9
:1001B0002270F0D14EB1421E0F3012F8011F1C7890
:1001C000904281EA04011170F7D1F0BD540F000094
:1001D00010B5431E01390F3013F8012F11F8014FEC
:1001E000834282EA04021A70F6D110BD30B591B094
:1001F00004460D4668461146FFF746FF00235DF8AA
:1002000023200133A95CA05C102B81EA0001A154DA
:10021000F5D111B030BD0549431E0F3013F8012F41
:100220008A5C83421A70F9D1704700BF540F0000F6
:1002300030B591B004460D4668461146FFF724FFDD
:1002400000235DF823200133A15C102B695CA154CD
:10025000F7D111B030BD431E0F3013F8012F8A5C67
:1002600083421A70F9D170474179427A437B10B5C5
:10027000447842714473827A847841704372817900
:10028000837B84728173C478C17982708371C27AEE
:10029000C37BC471C172C273C37010BD2DE9F0433A
:1002A000DFF87C90031D143013F8041C13F8028C43
:1002B00013F8032C13F8015C09EB010481EA020E28
:1002C00094F809C109EB020482EA080294F8096172
:1002D0006A4009EB080481EA080194F8094109EB36
:1002E00005078CEA0202694097F8097172408EEAAC
:1002F00005054E408EEA080E66408CEA0E0C6C40F6
:100300007C4087EA0C0703F8042C03F8036C03F81D
:10031000024C03F8017C04339842C5D1BDE8F08358
:10032000540F0000431E0F3013F8012F4A40834240
:100330001A70F9D17047F0B5431ECE1C0F301A4623
:100340004C1E14F8017F12F8015FB44285EA0705DC
:100350001570F6D104338342F1D1F0BDF0B5441EDF
:10036000CF1C0F3025464E1E16F801CF15F8013F61
:10037000B74283EA0C0383EA02032B70F4D10434FE
:100380008442EFD1F0BDFFF723BF0B09092B94BFC7
:100390003033373301F00F0109290370CBB2D4BFDA
:1003A000303337334370704773B506460D4601A8A6
:1003B000C9B2FFF7EAFF9DF80410002000F0FEFC30
:1003C0009DF80510002000F0F9FC3A21002000F013
:1003D000F5FC3446A31B9D4205DC0D21002000F0F6
:1003E000EDFC02B070BD14F8011B01A8FFF7CDFFB2
:1003F0009DF80410002000F0E1FC9DF8051000209D
:1004000000F0DCFCE6E70A784B782F2A1ADDA2F12F
:100410003A01062916D9462A14DC2F2B12DDA3F146
:100420003A0106290ED9462B0CDC402ACCBF373ABC
:10043000303A402BCCBF373B303B03EB0213037009
:10044000002070474FF0FF30704773B5064600201C
:100450000D4600F0A7FC8DF80400002000F0A2FC7F
:100460008DF80500002000F09DFC3A2806D101A976
:100470000DF10200FFF7C7FF044630B39DF80410EA
:10048000002000F09BFC4FF0FF34204602B070BD0E
:10049000002000F087FC0A288DF80400F5D00D2814
:1004A000F3D0002000F07EFC0A288DF80500ECD087
:1004B0000D28EAD001A90DF10300FFF7A4FF0028E1
:1004C000E3D19DF8033033550134AC42DDDC9DF8B7
:1004D0000230AB42DCDAD8E7FF2900DC64E7704782
:1004E0000123F0B58BB006AE8DF8073005460B46FC
:1004F000344601F1100C374618685968083303C7B1
:1005000063453E46F7D102AB1E4602F1100C1F4672
:1005100010685168083203C762453B46F7D131463F
:100520002046FFF755FE2046FFF775FE2046FFF7F1
:100530009BFEFFF7B3FE0DF107013046FFF7C0FD4C
:1005400031462046FFF744FE2046FFF764FE204672
:10055000FFF78AFE0DF107013046FFF7B1FD314686
:100560002046FFF735FE2B460AAD224603CAAA42B3
:1005700018605960144603F10803F6D10BB0F0BDC2
:1005800030B50D46044685B0114668462A46FFF749
:10059000A7FF69462046FFF71BFE2A462146204654
:1005A000FFF79EFF69462046FFF712FE2A462146C6
:1005B0002046FFF795FF05B030BD2DE9F0471746FF
:1005C000DDE9094298460546134602F1100653F844
:1005D00004CBB34240F804CBF9D10846303253F88B
:1005E000046B934240F8046BF9D10A4628460B99F4
:1005F000FFF7C6FF28461021FFF7D6FE2B782849C3
:1006000088F800306B7888F80130AB782370EB788D
:1006100063702B79A3706B79E3702268089B1A6072
:10062000207894F802A06278E6780B1880EA020934
:1006300093F809E18B1882EA0A0293F809317240B3
:1006400001EB0A0580EA0A0095F809518EEA0202D8
:1006500070405A4043406B406370002301EB060C2E
:100660009CF809C189EA060689EA0A0975408EEAFA
:10067000090E8CEA05058CEA0E0C2270A57084F830
:1006800003C098F80020C85C98F801405A40013334
:100690006040B3F5807FB854F3D1BDE8F08700BF68
:1006A000540F00002DE9F04F99B0074608AE012025
:1006B0000D463446DDF89480DDF89C908DF80F00EF
:1006C00001F1100EB446286869680835ACE80300EB
:1006D00075456646F6D104AD2E4602F1100EAC46C5
:1006E000106851680832ACE8030072456546F6D1DF
:1006F0000CAA154603F1100E944618685968083381
:10070000ACE8030073456246F6D1229B0DF1400C24
:1007100003F1200E624618685968083303C2734516
:100720009446F7D149462046FFF705FE3046FFF7CD
:1007300002FE98F800103046FFF7F4FD14AA239942
:100740002846FFF71DFF10212846FFF72DFE2A46F9
:1007500031462046FFF74AFD4FF0010B0DF1500ADC
:10076000BBF1010F54D10AF1100A524623992846D1
:10077000FFF706FF10212846FFF716FE2A462499A8
:100780002046FFF755FD2046FFF76EFD98F8012043
:100790002699FFF7E3FD2046FFF780FD0023249A0A
:1007A000CDE900930DF10F0143463046FFF7B4FC4D
:1007B0000BF1010B31462046FFF70AFDBBF10A0F92
:1007C000CED124992046FFF746FD2046FFF74CFD89
:1007D00098F801204946FFF7C1FD0123249ACDE98D
:1007E00000930DF10F0143463046FFF795FC31466B
:1007F0002046FFF7EDFC0CAA234603CB934238605A
:1008000079601C4607F10807F6D119B0BDE8F08FF2
:1008100024992046FFF71FFDB5E700BF2DE9F04FF3
:10082000774CADF5057D2068099009A800F0F0F837
:10083000002800F0DD80231D14AD14342A4618680A
:100840005968083303C2A3421546F7D118AC2546B0
:100850006C4B03F110062A4618685968083303C226
:10086000B3421546F7D1012106A8FFF7EEFD012896
:10087000064640F0C3809DF81850012D72D05ED31B
:10088000022DF0D15F4B20AD03F110062A46186807
:100890005968083303C2B3421546F7D15A4B24AD09
:1008A00003F110062A4618685968083303C2B34298
:1008B0001546F7D1554B28AD03F110062A461868A6
:1008C0005968083303C2B3421546F7D138AE302118
:1008D0003046FFF7BAFD3028C5D10DF120090DF5DE
:1008E000887830ADCDE902640BAF0AAE4B46424684
:1008F00029461CA801970096FFF75FFE0121002002
:1009000000F018FA20AA1CAB24A92CA8CDE9046792
:10091000CDE90289CDE90054FFF7C4FE0021084665
:1009200000F008FA102228A92CA800F0E1FA00280B
:1009300055D1882301218DF81C3007A84CE01025E3
:1009400001462CA88DF8B050FFF72EFD31462CA89B
:100950008DF8B050FFF728FD302331468DF8B030C8
:100960002CA839E0102110A8FFF76FFD1028804651
:100970007FF479AF38AE30213046FFF766FD30287E
:100980007FF471AF18ABCDE902630DF1200B0DF5CB
:10099000887A0DF1C0090BAF0AAE5B465246494654
:1009A0001CA801970096FFF708FE2946002000F0DA
:1009B000C1F918ABCDE9009314AA1CAB10A90CA87F
:1009C000CDE90467CDE902ABFFF76CFE00210846D4
:1009D00000F0B0F941460CA8FFF7E6FC43E7992385
:1009E000012107A88DF81C30FFF7DEFC1021B7E7C6
:1009F0004FF0FF300DF5057DBDE8F08F0020F9E7E1
:100A00005D110000711100008111000091110000C2
:100A10002DE9F74F012110279D4C066823689D4D55
:100A2000D3F880205FFA86F842F48032C3F8802041
:100A3000994A884512682E609167D167176140F224
:100A40000127C2F8A410C2F8A81017635763D3F89F
:100A50008020AC4642F02002C3F88020D3F88020EA
:100A6000009442F04002C3F88020D3F8802042F482
:100A70008052C3F880205A6822F002025A605A68F5
:100A800042F002025A6005D026D3B8F1020F05D019
:100A90000020DBE041464FF0030A00E08A464FF0B9
:100AA0000009C6F307220192C6F307460125DDF8C7
:100AB00004E009F1010707FB0EF4B4FBF5FB05FBAD
:100AC0001B420AB95E4509D00135B5F5807FF4D1E6
:100AD000202FB946EAD1DBE70021DCE766009C3E27
:100AE000A42E0FD9A6009C3EA42E40F2B280E600B0
:100AF0009C3EA42E40F2AF8024019C3CA42C00F22A
:100B0000C58003220EF1FF34132C49EA421200F291
:100B1000A48000241C62D3F83842B8F1000F40F0E2
:100B2000A48044F02004C3F83842C82300BF013B2E
:100B3000FCD1009B1B681964596C41F00101596498
:100B4000596C21F001015964596C41F0010159645B
:100B5000596CCC07FCD59A60D3F8382222F0800279
:100B6000C3F83822DA68D107FCD5C3F870A05A6FF1
:100B700042F001025A675A6F22F001025A675A6F17
:100B800042F001025A675A6FD207FCD59CF8022046
:100B90009D67142A6CD80024404909680C614049BB
:100BA00002EB8202096801F50044256845F0010561
:100BB0002560256845F0020525603A4C246804F557
:100BC0000044256825F00205256043F6FC740D59A4
:100BD00025F001050D510D5925F002050D51052592
:100BE0009CF8011004244F43C3F898702E4B1B68E7
:100BF000D96841F08001D9609D62996A41F0800115
:100C00009962002159601C60D96821F08001D96087
:100C1000D96841F00301D960D96821F00801D96091
:100C2000D96821F00401D960204B1B685A611A6110
:100C300040221A606FF07F421D4B1B685A619A6117
:100C4000C2780AB31D6100F049F9012003B0BDE884
:100C5000F08F012256E7022254E7AEF10F0EBEF1EB
:100C60000A0F3FF658AF022454E724F020045AE755
:100C7000282A03D80949012409688FE7322A8ED827
:100C800006490224096889E71C61DCE71046DDE7B4
:100C900004000010300000100800001024000010B4
:100CA000100000100C0000101C00001020000010AC
:100CB00028000010054B9B785843032390FBF3F06A
:100CC000002801DD0138FDD1704700BF3000001061
:100CD0000146002208B58A4200DB08BD4FF47A7055
:100CE000FFF7E8FF0132F6E7024B00211B68986925
:100CF000704700BF2800001001280CD003D3022841
:100D000011D000207047094B1A6843F6FC73D05885
:100D100000F001007047054B1A6843F6FC73D05889
:100D2000C0F340007047024BF6E700BF1000001010
:100D30000C000010012811D002D3022817D07047F0
:100D40000E4B1A6843F6FC7321B1D15841F00101F2
:100D5000D1507047D15821F00101F9E7074B1A68CB
:100D600043F6FC7329B1D15841F00201F0E7044B7E
:100D7000F5E7D15821F00201EAE700BF10000010AA
:100D80000C000010024B1B68586900F0010070470E
:100D90001C000010024B1B685869C0F340107047DC
:100DA0001C00001008B510B9FFF7ECFFFBE7024B81
:100DB0001B681868C0B208BD1C00001008B510B947
:100DC000FFF7E8FFFBE7024B1B68196008BD00BF97
:100DD0001C0000102DE9F041202541EA400C4FF0A5
:100DE0003C0E042738214FF024081820354E346873
:100DF00025603468656805F0F805282D39D014D8C9
:100E0000102D03D007D805B3082DF3D1C4F808C0BE
:100E10002760A061EDE7182D1ED0202DEAD1142304
:100E2000236028230220A36114E0402D2DD006D892
:100E3000302D24D0382DDDD1C4F80080E9E7502DC5
:100E40002AD0582D35D0482DE8E7142323602823D5
:100E50000120A361BDE8F0812BB115780132A560B6
:100E60002760A161C5E7142222602822A261002028
:100E7000F0E7013BF1D114222260A561F7E71423CA
:100E8000236028230320A361E4E7012B8ABF2760A6
:100E9000C4F818E0A161ACE7A468551C147032686E
:100EA000013B012B8ABF1760C2F818E091612A4606
:100EB0009FE70BB1A3681370142233681A602822CD
:100EC0009A61D4E72000001013460A460121FFF77B
:100ED00081BF13460A460021FFF77CBF62B6704708
:100EE00072B6704740404940FFF798FCFEE70000AB
:100EF000032A70B414D940EA0105AD0704460B4635
:100F000022D11D6826681946AE42204603F104032B
:100F100004F1040418D1043A032A20461946F0D8F3
:100F2000541E72B102780B789A4208BF641806D03A
:100F30000CE010F8012F11F8013F9A4206D1A142AE
:100F4000F7D1002070BC7047541EEBE7D01A70BC7C
:100F5000704700BF637C777BF26B6FC53001672BF6
:100F6000FED7AB76CA82C97DFA5947F0ADD4A2AF9D
:100F70009CA472C0B7FD9326363FF7CC34A5E5F1AB
:100F800071D8311504C723C31896059A071280E259
:100F9000EB27B27509832C1A1B6E5AA0523BD6B3AD
:100FA00029E32F8453D100ED20FCB15B6ACBBE391D
:100FB0004A4C58CFD0EFAAFB434D338545F9027F09
:100FC000503C9FA851A3408F929D38F5BCB6DA21C2
:100FD00010FFF3D2CD0C13EC5F974417C4A77E3DEE
:100FE000645D197360814FDC222A908846EEB81444
:100FF000DE5E0BDBE0323A0A4906245CC2D3AC6207
:101000009195E479E7C8376D8DD54EA96C56F4EA11
:10101000657AAE08BA78252E1CA6B4C6E8DD741F22
:101020004BBD8B8A703EB5664803F60E613557B9E5
:1010300086C11D9EE1F8981169D98E949B1E87E99F
:10104000CE5528DF8CA1890DBFE6426841992D0F4E
:10105000B054BB16000000000000000000000204B5
:1010600006080A0C0E10121416181A1C1E20222430
:1010700026282A2C2E30323436383A3C3E40424420
:1010800046484A4C4E50525456585A5C5E60626410
:1010900066686A6C6E70727476787A7C7E80828400
:1010A00086888A8C8E90929496989A9C9EA0A2A4F0
:1010B000A6A8AAACAEB0B2B4B6B8BABCBEC0C2C4E0
:1010C000C6C8CACCCED0D2D4D6D8DADCDEE0E2E4D0
:1010D000E6E8EAECEEF0F2F4F6F8FAFCFE1B191F73
:1010E0001D131117150B090F0D030107053B393FA0
:1010F0003D333137352B292F2D232127255B595F90
:101100005D535157554B494F4D434147457B797F7F
:101110007D737177756B696F6D636167659B999F6F
:101120009D939197958B898F8D83818785BBB9BF5F
:10113000BDB3B1B7B5ABA9AFADA3A1A7A5DBD9DF4F
:10114000DDD3D1D7D5CBC9CFCDC3C1C7C5FBF9FF3F
:10115000FDF3F1F7F5EBE9EFEDE3E1E7E501101061
:1011600000770DDCD07A3C82762E529D03C1B6AE5C
:10117000D62B7E151628AED2A6ABF7158809CF4F11
:101180003C3243F6A8885A308D313198A2E03707B7
:10119000343925841D02DC09FBDC118597196A0BA3
:0811A000320000000A0000000B
:0811A80000000000000000003F
:1011B000000C0C010080044000400440000000507E
:1011C0000000015000000250000003500080004069
:0C11D0000000004000C0034000E000E010
:00000001FF
